:100000000000042009030000310300003303000056
:100010003D470000370300003903000000000000E6
:100020000000000000000000000000002542000069
:100030003D030000000000004542000041030000B5
:10004000BD28000043030000150F0000430300001B
:100050004303000043030000212900004303000084
:100060004303000043030000430300004303000078
:100070004303000043030000430300004303000068
:100080004303000045430000430300004303000016
:100090004303000043030000430300004303000048
:1000A0004303000043030000430300004303000038
:1000B00043030000430300000000000000000000B4
:1000C0004303000043030000430300004303000018
:1000D000430300004303000043030000000000004E
:1000E0000000000000000000000000000000000010
:1000F0000000000000000000000000000000000000
:1001000000000000000000000000000000000000EF
:1001100000000000000000000000000000000000DF
:1001200000000000000000000000000000000000CF
:1001300000000000000000000000000000000000BF
:1001400000000000000000000000000000000000AF
:10015000000000000000000000000000000000009F
:10016000000000000000000000000000000000008F
:10017000000000000000000000000000000000007F
:10018000000000000000000000000000000000006F
:10019000000000000000000000000000000000005F
:1001A000000000000000000000000000000000004F
:1001B000000000000000000000000000000000003F
:1001C000000000000000000000000000000000002F
:1001D000000000000000000000000000000000001F
:1001E000000000000000000000000000000000000F
:1001F00000000000000000000000000000000000FF
:100200000348044B834202D0034B03B118477047A5
:10021000CC800020CC800020000000000548064B68
:100220001B1AD90F01EBA301491002D0034B03B1F4
:1002300018477047CC800020CC80002000000000D0
:1002400010B5064C237843B9FFF7DAFF044B13B11E
:100250000448AFF300800123237010BDD08000203C
:10026000000000006469000008B5054B1BB105499A
:100270000548AFF30080BDE80840FFF7CFBF00BFDF
:1002800000000000D480002064690000A3F5803ADB
:10029000704700BF174B002B08BF134B9D46FFF75D
:1002A000F5FF00218B460F461348144A121A04F03A
:1002B0007BFB0E4B002B00D098470D4B002B00D042
:1002C00098470020002104000D000D48002802D0AE
:1002D0000C48AFF3008004F0B5FB2000290002F0C9
:1002E0004DF804F035FA00BF0000080000000000DF
:1002F0000000000000000420D0800020505A01209F
:1003000000000000000000000649074A074B9B1A46
:1003100003DD043BC858D050FBDC02F039F9FFF78D
:10032000B9FF0000BC69000000800020D0800020E0
:10033000FEE7FEE7FEE7FEE7FEE7FEE7FEE7FEE795
:10034000FEE7FEE7704700BF70B53048304D84B01F
:1003500000F028FC2F4800F025FCAB68C3F30A022C
:10036000D11C05EB810015F82110490723D405EBBA
:1003700082015A1CC9680191C2F30A0205EB82028C
:1003800001F0030CBCF1010FD66803F1020436D072
:10039000BCF1020F2DD1BDF80630C3F3891303332E
:1003A000360C04EB93041B4800F008FC00B1AC6071
:1003B000304604B070BD017801F00301012903F15A
:1003C00002030AD0022902F1030114D005EB8100D7
:1003D000017801F003010129F4D10288C2F38312EC
:1003E0001344C3F30A02D11C05EB810015F8211058
:1003F000BBE70026D7E7428803EB9213AEE7BDF8D0
:100400000430C3F38313360C1C44CCE704A1002052
:10041000EC80002000A10020064B074810B5002208
:100420001A7000F031FC044610B9044800F0DCFCFE
:10043000204610BDEC800020A06900002C5F000069
:10044000704700BF2DE9F047884DD5E901239A4256
:1004500084B05FD005F500560023B361BFF34F8F22
:10046000AC68C4F30A02D31C05EB830015F82330F3
:10047000590718D56F68037803F00303012B42D0A6
:10048000022B03D14388023404EB9314C4F30A0211
:10049000B169D31C05EB830029B9A74239D915F8F6
:1004A00023305B07E7D405EB8202631CD26800921D
:1004B000C3F30A0305EB830302F00302DB68019335
:1004C000022A04F1020729D0012A00F0838034694E
:1004D0003CB1236820469B689847E3681C68002C61
:1004E000F7D1634B63486449181AC008000440F010
:1004F000020000F0C7F8D5E90130C01A18BF01208A
:1005000004B0BDE8F08703880234C3F383131C44AE
:10051000BCE7AF60002004B0BDE8F087BDF8023052
:100520005648C3F389194C46502C28BF502464F315
:100530008F1304F10801ADF8023000F0A7FB8046EC
:100540000028C4D000F0ECFB002308226946404696
:1005500000F016FCFB43C3F30A030133C7F30A029E
:100560000332B4EB830F05EB82014FEA830A6FD9A4
:10057000A4EB0A04082352464046E4B200F000FC13
:100580003F490AF108032246404600F0F9FB09F111
:10059000030907EB9907B369002B63D1346964B190
:1005A000E3685A7941462046002A57D023681B68E1
:1005B0009847E3681C68002CF2D1404600F0B4FB79
:1005C000002000F0BBFAB36903B9AF60002000F06F
:1005D000BDFA90E7BDF800202848C2F38313062B2C
:1005E00028BF062363F38912023303F00F01890049
:1005F000ADF8002000F04AFB804600283FF467AFCA
:1006000000F08EFB002308226946404600F0B8FB4C
:10061000BDF8003013F4707FBDD06FF00109A9EB75
:1006200004090824C7F30A0103312346042205EB19
:100630008101404600F0A4FBBDF800300137C3F350
:10064000831309EB0702934204F10404EAD8A2E7FA
:1006500022460823404600F093FB98E71C68002CD4
:100660009ED1AAE7404600F05FFB44E7EC80002003
:100670009069000068690000985A0000A0690000B5
:10068000F8800020F8B52A4C054600200F4600F0FF
:1006900055FAD4E9016303F500639B1B012B44D891
:1006A0000121244800F066FAFFF74EFE014621487A
:1006B00000F060FAD4E9012303F500639B1A012BD3
:1006C000EED9C2F30A030333052144F823100232A2
:1006D0000020626000F03AFA0021164800F040FA6B
:1006E00080F31002711CEB0003F03803C1F30A0120
:1006F000C6F30A06120443F0010304EB810103363A
:1007000043EA872342EA1542CA6044F82630237838
:1007100013B9FFF795FEF8BDFFF794FE0028F8D057
:10072000FFF790FE0028F7D1F3E73246C9E700BF94
:10073000EC80002008A1002038B5094B03F50052D9
:10074000012514691D704CB1E3685D712368204672
:100750005B689847E3681C68002CF5D138BD00BF82
:10076000EC80002000B585B00346002101AA44F2C8
:100770000100CDE90111039300F004F805B05DF824
:1007800004FB00BF10B572B6FFF7D6FFFFF75AFEA5
:100790000028FBD1104B114C11491C1BE408240408
:1007A00044F00100FFF76EFF0E4BD3F8F030DB078B
:1007B00000D500BE0C4944F00200FFF763FFBFF311
:1007C0004F8F0849094BCA6802F4E0621343CB60BB
:1007D000BFF34F8F00BFFDE790690000686900001C
:1007E000B05A000000ED00E0BC5A00000400FA0519
:1007F00059B142B1531E1A4005D182600160838015
:10080000C26010467047092070470E20704700BF35
:1008100010B48468C26803468088121B904203D2D9
:1008200004205DF8044B7047DC681A6820401154BE
:10083000DA680132DA6000205DF8044B704700BFCF
:1008400003468068DA6890420DD010B49C689A889C
:1008500018682240825C0A709A6801329A6000200F
:100860005DF8044B70470520704700BF30B5047831
:10087000012C83B027D0022C0FD064B939493A48F3
:10088000FFF7DEFF002849D0384B03221B688DF8A4
:1008900000206846984703B030BD354B3549C068E5
:1008A0001A788DF8004001908A5C3349002A30D1D3
:1008B000012203F10C0000F0A7FD2C4B68461B68D9
:1008C000984703B030BD037AC3B143682B4D197804
:1008D0002846FFF79DFF002832D0244B01901B686B
:1008E0008DF8004068469847A968EB68AA885B1AAB
:1008F0009A4203D2224B01221A70CCE71C4B1D4AAC
:100900001B781D49D35CB3B101221E4801F048F8A1
:10091000C1E70122181D01F043F8CEE71448154A3B
:1009200003781049D35C0122ABB1043003B0BDE8B9
:10093000304000F0D1BF0122134800F065FDAAE766
:10094000AA68EB689A42CFD0084B8DF800001B686C
:1009500068469847C8E70C3003B0BDE8304000F067
:10096000DBBC00BF1CA60020F4A5002020A60020B0
:100970000080002028A6002018A6002004A6002041
:1009800014A60020048000200C800020F0B52F4E1B
:1009900089B0326000294FD08A8804460E462C4820
:1009A00009681D46FFF724FF08B109B0F0BDB28900
:1009B000B1682848FFF71CFF0028F6D194F810C052
:1009C000637C254FBCF1000C18BF4FF0010C002BCD
:1009D0000FCF6E460FC66368009323680193E368E8
:1009E0000293A368039397E80F0008BF4FF0000E2F
:1009F00086E80F0018BF4FF00E0E6369174A1848BB
:100A0000069369468DF814C08DF81C508DF815E0DA
:100A100000F044FA0028C8D12368124A013310704C
:100A2000C3D00F48104A03781049D35C012233B178
:100A3000043000F0B5FFB8E7072009B0F0BD084B5F
:100A400003F10C0000F0E0FCAFE700BF20A600209F
:100A500004A60020F4A50020385F00006D08000007
:100A60000080002014A6002028A6002018A6002040
:100A700070B5104D014610482E78FFF7E1FE044690
:100A80000EB9204670BD0D480D4A0378002129702B
:100A9000D35C0C49012243B1043000F081FF0028EF
:100AA000EFD0FFF75FFE204670BD0C3000F0ACFCCD
:100AB000F5E700BF14A6002004A600200080002057
:100AC00028A6002018A6002070B501461548FFF79B
:100AD0009FFE044608B1204670BD134D134E2B787F
:100AE000F35CA3B1281D00F04DFF0028F3D110499D
:100AF0000C48FFF7A5FE0028EDD12B780C49F35CDC
:100B000053B1BDE870400B48012200F0E5BE05F18D
:100B10000C0000F06DFCE8E7BDE8704006480122DB
:100B200000F0FABBF4A500200080002028A60020D9
:100B30001CA60020048000200C80002072B6024A0F
:100B4000136801331360704724A60020034A13681A
:100B5000013B136003B962B6704700BF24A60020B2
:100B6000034653E8000F0A4643E8002C9CF0000FB0
:100B7000F7D17047034653E8002F02EB010043E82A
:100B8000000C9CF0000FF6D1704700BF034653E8FD
:100B9000002FA2EB010043E8000C9CF0000FF6D1FF
:100BA000704700BF0346012253E8001F41EA0200DC
:100BB00043E8000C9CF0000FF6D17047034600227A
:100BC00053E8000F00EA020143E8001C9CF0000F0C
:100BD000F6D17047D0B110B4D0E90112521A0468AE
:100BE000D2B2531E2160DBB252B101680A6803F130
:100BF000FF3C541C0C6013705FFA8CF3FF2BF4D194
:100C00000368002018715DF8044B70470E20704790
:100C100038B504460020FFF791FFD4E900311A6887
:100C20008A4215D9511E19602168A36812F8012C57
:100C3000208A0D68E4685B1B00FB02440A79DBB282
:100C40009A4200D20B710020FFF780FF204638BD8A
:100C500000240020FFF77AFF204638BD38B505464E
:100C600000200C46FFF76AFF2A681368591C1160C0
:100C7000E9682A8A641AB4FBF2F41C70BDE83840B3
:100C80000020FFF763BF00BFFFF7A4BF2DE9F843C3
:100C9000048ACF1C043C27440646B7FBF4F7FFF751
:100CA000B7FF98B3FFB24FF48073013F8146838052
:100CB000C48006602CD00346002507E00134AF4213
:100CC00089F80540C8F80000066021D030469846F3
:100CD000FFF79EFF013599F8054003460028EDD146
:100CE000611ED9F8006016D04A4601339942126855
:100CF000FBD1176854B1002501E0B146366849467A
:100D000038460135FFF7AAFFAC42F6D84FF000098C
:100D10004846BDE8F88349463046FFF79FFFF5E7B0
:100D200001210430FFF726BF2DE9F04101210446DF
:100D30000430FFF72BFF10F0FF0301D0BDE8F08176
:100D400067792668791E15D02246013399421268C8
:100D5000FBD1D2F80080002FF0D0002501E034460E
:100D60003668214640460135FFF778FFAF42F6D896
:100D7000BDE8F08121463046BDE8F041FFF76EBF87
:100D80002DE9F8438846C788417907FB01F104390A
:100D900002EB030C1E1D6145154638BFCD1AB74244
:100DA0000446B6FBF7F207FB126002D8013A24684A
:100DB000FCD13E1AAE4228BF2E469DB14FF000092D
:100DC0000430AD1B324608EB0901204403F061FEFC
:100DD000AF42B14424683E464FF0000028BF2E4683
:100DE000002DEDD1BDE8F88382680023936082680E
:100DF0001361826853618268D3608268536082683D
:100E00001360704770B5161E07DD0C468D1914F877
:100E1000010BFFF759FEA542F9D1304670BD00BF66
:100E200010B50C462046FFF723FE0528FAD0012016
:100E300010BD00BF30B50A4B0A4C53F8213054F8AE
:100E40002110027885B0D0E901548DF80020C268E5
:100E500001958DF8084003926846984705B030BD6B
:100E600034A600202CA6002030B50A4B0A4C53F8BB
:100E7000213054F82110027885B0D0E901548DF862
:100E80000020C26801958DF8084003926846984793
:100E900005B030BD34A600202CA60020F0B5184BBC
:100EA000067889B043F82620164B0446487F9855AB
:100EB0001546154A8E46096942F8261022789F5C2D
:100EC000BEE80F00EC46ACE80F009EE80F008CE88F
:100ED0000F0004964FB1002D0C4A694608BF2A4600
:100EE000201D00F0EDFB09B0F0BD002D084A694659
:100EF00008BF2A4604F10C0000F01AF909B0F0BD51
:100F000034A6002028A600202CA60020350E0000C4
:100F1000690E0000014B1B68184700BF3CA600206B
:100F20000C4B984213D110B500200C46FFF706FE7B
:100F3000094B187920B10020FFF708FE112010BDE1
:100F400001221C601A71FFF701FE002010BD002075
:100F5000704700BF002000403CA6002000000000B9
:100F600010B5714AD2F8043399058AB068D5D2F821
:100F70002431002B64D00023C2F82431D2F824316C
:100F800001934FF40171694B0198C2F8081393F86B
:100F9000291009B901215160634902228DF81820F6
:100FA000D1F88024C1F880249FED5D7B9969D868D1
:100FB0000790CDE9081283ED067BD3E9001206A85D
:100FC0009047594AD2F81C31C3B1584B5869196A35
:100FD00088426AD993F8281001F0FF00002964D1F3
:100FE000C2F81C01D2F81C11039103999C68186A7D
:100FF000196A205C01311962C2F81C054A4AD2F80C
:101000004431DBB10021494BC2F84411D2F844010C
:1010100093F829100090009809B1012111609A6994
:1010200062B1D8685C6A00210122CDE907049961A8
:101030008DF8182006A8D3E9001290470AB010BD19
:10104000394AD2F804335B07BBD5D2F80831002BFC
:10105000B7D0364B996900293ED00021C2F808115B
:10106000D2F8081104910499D868596AD2F8182561
:1010700042545A6A996901325A625A6A8A42A0D124
:10108000DA691968002A30D0D8689A611A695C6AEE
:101090000790DA60002001220894D86158625C68E9
:1010A0008DF8182006A8A0478BE71F4A0020C2F839
:1010B0001C01D2F81C210292029A5A69002A9DD082
:1010C000D3E901215C698DF81800CDE90714586156
:1010D000196806A8904791E7C2F80811D2F80801EC
:1010E00005900598D2F81825C7E793F8292012B97A
:1010F0000D4A012050600C4A4FF40170C2F80803F9
:10110000586ADA6800249C610124CDE907205B68F5
:101110008DF8184006A8984753E700BFAFF300804A
:1011200000000000000000000020004048A6002051
:101130002DE9F041724F06792C2303FB067382B030
:1011400093F82A30002B40F09E8005460C4600683C
:101150006C499046FFF7E4FE002840F09080236839
:10116000591C19D01F2B4FF001028ABF66494FF05E
:10117000A04103F01F0302FA03F3C1F80835236806
:101180001F2B86BF03F01F035F4A4FF0A04203F5F9
:10119000E073032142F8231063685A1C0BD01F2B05
:1011A00086BF03F01F03584A4FF0A04203F5E073D7
:1011B000002142F823102B68A269C3F82425227D60
:1011C000637D13432A68C2F86C35D4E900122B689A
:1011D000C3F81425C3F80C15237D012B5CD02C23F8
:1011E00006FB03F3FA18C2F804802269FA502B6850
:1011F000B8F1000F2DD00021227FC3F81C11D3F8C5
:101200001C310093009B2B68C3F84411D3F8443180
:101210000193019B2B683D49C3F804132B6843F3EA
:1012200007335201002BD2B231DB03F1604303F5E7
:10123000614383F800232B6843F30732002A08DB5D
:1012400033495409012302F01F02934041F824302E
:101250002B680422C3F800252C2303FB06F606F1B5
:10126000180200233E44B918BB5001224B6086F897
:101270002930736186F82A2002B0BDE8F081112080
:1012800002B0BDE8F081082002B0BDE8F08121493C
:1012900003F00F03CA54CEE7A368591C0BD01F2BD1
:1012A00086BF03F01F0318494FF0A04103F5E07318
:1012B000002241F82320E3685A1C1AD01F2B8ABF52
:1012C00011494FF0A04103F01F03012202FA03F37A
:1012D000C1F80835E3681F2B88BF03F01F0303F52F
:1012E000E0738CBF08494FF0A041032241F823204E
:1012F000E3682A68A168C2F80835C2F810156EE7DD
:1013000048A60020610F000000030050800002008A
:1013100000E100E014ED00E02DE9F041334C90F8DD
:1013200004E02C2303FB0E438446586984B0002854
:101330004ED15A619960186283F82800DCF80020C9
:10134000C2F81C01D2F81C210292029ADCF800209B
:1013500001219160DCF800209D68C2F81C01D2F8E0
:101360001C1101910199196A6E5C196A01311962A7
:10137000C2F81C655A6812B104B0BDE8F0815E691C
:101380001A6ADCF8001096421BD9074602E093F86F
:1013900028200ABBD1F81C21002AF8D0C1F81C7102
:1013A000D1F81C210392039A1A6A15F802801A6A6E
:1013B00001321A62C1F81C851A6A9642EAD8DCF832
:1013C0000010D1F81C31002BFBD00123CB6004E0CE
:1013D000112004B0BDE8F0810F202C2303FB0E4345
:1013E00000225A6104B0BDE8F08100BF48A6002089
:1013F0000279044B2C2101FB02335869003818BFD5
:101400000120704748A60020F0B4504E90F804C068
:101410002C2303FB0C6386B05C68ECB105689C6907
:101420004FF40177C5F80873CCB1DB69002B40F0AD
:1014300083802C2303FB0C631961DA612C2202FBED
:101440000C620368516841B34FF40172C3F804237E
:10145000002006B0F0BC70479C69002C65D12C239D
:1014600003FB0C639A610022D9605A62DA6193F837
:101470002930002BE2D10268C2F82431D2F82421AD
:10148000019202680199C2F80831D2F8083102933A
:101490000368029901221A60D0E7C3F84411D3F817
:1014A00044310393039B0368D3F82411D3F8085104
:1014B000D3F844416DB954EA0105F5D02C2303FB60
:1014C0000C6300229A6100293BD0032006B0F0BCD7
:1014D000704754EA0105F1D1916999B1C3F80851F7
:1014E000D3F8081104910499D468516AD3F81835D7
:1014F0006354536A916901335362536A9942D2D853
:10150000956108E0C3F80811D3F808110591059911
:10151000D3F81835536A02682C2303FB0C6393F845
:10152000293033B10123136092E7DB69002B80D0AF
:1015300005E0012353608BE70368C3F804731120AF
:1015400087E7002CE7D00F2083E700BF48A60020E4
:10155000F0B5594BD3F824218BB0002A58D0002283
:10156000C3F82421D3F82411049102228DF8182005
:101570000499524AD3F88014C3F880149FED4C7B31
:101580000991D3F83C45D06882ED067BCDE907048C
:10159000D2E9001306A89847474BD3F8442152B12B
:1015A0000021464AC3F84411D3F8440191690390DD
:1015B0000398002960D1404BD3F8202162B100206C
:1015C000C3F82001D3F82021029201213B4A029C5A
:1015D000D9605169002942D1374BD3F85821AAB1BB
:1015E0000020C3F85801D3F85811344A01910199E9
:1015F000516959B1D3F84C458DF81800D2E9013141
:101600005061CDE9071406A8116898470BB0F0BDEA
:10161000D3F810110029BFD0C3F81021D3F810114E
:10162000264C05910599A169D3F83C058842B3D1B0
:10163000E569E768A561D4E900167DB3E261D3F8F6
:10164000002222F02002C3F800222369E360012374
:10165000CDE907708DF8183006A8B0479CE7D3F89D
:101660004C458DF81800D2E901315061CDE90714DD
:1016700006A811689847AFE79FED0D7BD3F83C456E
:10168000D0684FF0010CCDE9070482ED067BD2E96A
:1016900000138DF818C006A898478CE70123CDE900
:1016A00007708DF8183006A8B04775E7AFF30080D3
:1016B00000000000000000000020004078A600208C
:1016C0002DE9F0430779DFF80C8207EBC70308EB3D
:1016D000830387B093F82030002B40F0B480044699
:1016E0000D46006876499146FFF71AFC002840F045
:1016F000A6802B68591C4FEAC70619D01F2B4FF044
:1017000001028ABF6F494FF0A04103F01F0302FAA4
:1017100003F3C1F808352B681F2B86BF03F01F03A6
:10172000684A4FF0A04203F5E073032142F823100A
:101730006B685A1C0BD01F2B86BF03F01F03614A36
:101740004FF0A04203F5E073002142F82310236814
:10175000A969C3F824152B7D6A7D1A432368C3F851
:101760006C25D5E900312268C2F80C35C2F8141591
:101770002B7D012B70D0F21908EB8203C3F8049083
:101780002B6948F822302368B9F1000F42D00021BC
:101790002A7FC3F81011D3F810310193019B2368FD
:1017A000C3F82011D3F820310293029B2368C3F8B9
:1017B0002411D3F824310393039B2368C3F8441105
:1017C000D3F844310493049B2368C3F85811D3F829
:1017D00058310593059B23683B49C3F804132368DC
:1017E00043F307335201002BD2B230DB03F16043E5
:1017F00003F5614383F80023236843F30732002A8B
:1018000008DB32495509012302F01F02934041F8D9
:10181000253023683E44B60006F1180108EB0104A8
:1018200046440825C3F800550022012348F801204A
:101830006260726186F8203007B0BDE8F083112045
:1018400007B0BDE8F083082007B0BDE8F083204969
:1018500003F00F03CA54CFE7AB68591C0BD01F2B02
:1018600086BF03F01F0317494FF0A04103F5E07353
:10187000002241F82320EB685A1C1AD01F2B8ABF84
:1018800010494FF0A04103F01F03012202FA03F3B5
:10189000C1F80835EB681F2B88BF03F01F0303F561
:1018A000E0738CBF07494FF0A041032241F8232089
:1018B000EB682268A968C2F80835C2F810155AE723
:1018C00051150000000300501003420000E100E049
:1018D00014ED00E078A6002001F0604CBCF1005F40
:1018E00030D170B590F804E0254C0EEBCE0C04EB33
:1018F0008C0C0346DCF8140082B04FEACE050028B9
:1019000038D1CCF81420CCF808101A68C2F820019D
:10191000D2F820210192019A1A68C2F85801D2F82F
:1019200058210092009A1A68DCF81460C2F8441535
:10193000C2F848651A6801219160DCF804201AB1E8
:1019400002B070BD102070471968D1F82021D1F87D
:1019500058010243F9D080B90122CA601A68D2F84E
:101960005831002BFBD0754404EB850400236361E0
:1019700002B070BD112002B070BD0F20F3E700BFB0
:1019800078A600200379054A03EBC30302EB830228
:101990005069003818BF0120704700BF78A60020AA
:1019A00001F06043B3F1005F65D170B590F804E0D9
:1019B0004B4C0EEBCE0C04EB8C0C82B0DCF80450DC
:1019C0004FEACE03002D76D006684FF40475C6F8B2
:1019D0000853DCF81860002E4FD0DCF81C60002E95
:1019E00078D1734404EB830300251961DA6103683D
:1019F000C3F81051D3F810310193019B0368C3F869
:101A00004451D3F8443100930368009DC3F8341562
:101A1000C3F838250268D2F8003243F02003C2F838
:101A2000003290F804C002680CEBCC0304EB830393
:101A30004FEACC055B6843B14FF40473C2F804333A
:101A4000002002B070BD00283ED1D2F81031D2F88B
:101A50004411D2F824010B43F5D000284FF00003C5
:101A6000654418BF032004EB8504994218BF0F207A
:101A7000A36102B070BD10207047734404EB830370
:101A800000259A61DD61D9600368C3F81051D3F86D
:101A900010310193019B0368C3F84451D3F84431DA
:101AA00000930368009DC3F83415C3F83825036814
:101AB00001221A60B5E7DCF81850002DDDD0DCF803
:101AC0001C50002D8DD008E0654404EB85050320F3
:101AD000AB61B6E70368C3F804531120B1E700BF58
:101AE00078A6002038B5094C094D002322681A4415
:101AF0000133AB422260F9D12168064802F0FEFEB4
:101B00004FF47A7001F0A2FEEFE700BF0CB700209F
:101B1000A0860100CC62000080B5DFF86C80DFF8A1
:101B20006C9086B0D8F8000003F03EFF0446D8F869
:101B30000C000D4603F038FF0646D8F810000F469B
:101B400003F032FF024699F800000B46012150B91C
:101B500099F8010038B999F8020020B999F8030002
:101B600008B999F804100491CDE90223CDE9006782
:101B700022462B46034802F0C1FE4FF4007001F0EC
:101B800065FECFE7E062000024B700201CB700200C
:101B90002DE9F04F2DED028BDFF81481414D424CC1
:101BA0008DB095ED007AD8ED007AD5ED016AD8EDCB
:101BB000018A95ED026A98ED028AD5ED035A95EDFA
:101BC000045AB4EEE77AF1EE10FAF4EEE76A4CBF8D
:101BD0004FF001094FF00009F1EE10FAB4EEE86A97
:101BE000CCBF4FF0010A4FF0000AF1EE10FAF4EE0C
:101BF000C85A4CBF4FF0010B4FF0000BF1EE10FA3A
:101C0000B4EEC85A4CBF01230023F1EE10FAB4EE33
:101C1000E77ACCBF01220022F1EE10FA17EE900A0B
:101C200084F8009084F801A084F802B0E370227177
:101C300013D4F4EEE76AF1EE10FA0EDCB4EEE86AC3
:101C4000F1EE10FA09D4F4EEC85AF1EE10FA04D409
:101C5000B4EEC85AF1EE10FA1FDDCDE90A3203F0F6
:101C6000A3FE0A9B0B9A0892064618EE100ACDE9CD
:101C700006B30F46CDE9049A03F096FE02460B46E2
:101C800018EE900ACDE9022303F08EFE3246CDE92C
:101C900000013B46054802F031FE332001F0D6FD3D
:101CA0007FE700BF0C0000201CB70020206300006D
:101CB00024B70020000000002DE9F04F2DED068B29
:101CC000394F3A4C9FED3AAADFED3AAADFED3A8A56
:101CD0003A4D9FED339B83B000264FF000084FF044
:101CE000000936E0B5EEC08AF1EE10FA51D59FED4D
:101CF000348AC246CB46D5ED007ADFED326A94EDE8
:101D0000047A84ED038A77EE8A7AF4EEE67AF1EECD
:101D100010FAC5ED007A37DDDFED2B7A77EE677AC2
:101D20009FED2A7AF4EEC77A0023F1EE10FA2B60C9
:101D300025D417EE900AC4ED047A03F035FECDE900
:101D40000001524622485B4602F0D8FD662001F0B1
:101D50007DFDD4ED017A94ED037A6AEE677A87EE21
:101D6000AA8A28EE288A38EE078AB4EEE88AF1EECD
:101D700010FAB7DDB246BB46B0EE688ABBE751EC5D
:101D8000190B84ED047ADAE717EE100A03F00CFE63
:101D9000D5E718EE100A03F007FE82468B46AAE745
:101DA00000000000000054400000594024B700200B
:101DB000CDCCCC3D00C82F480000C842ACA60020C6
:101DC00000000000000070420AD7233C0000A0423F
:101DD0007063000000B583B000230648019302F051
:101DE0008DFD0548502101AA03F046FE0A2001F0AE
:101DF0002DFDFBE794630000BCB600202DE9F04FF9
:101E00002DED028B4FF000099FEDB88AB84FDFF837
:101E100028B3DFF828A397B04C464D464E4611E054
:101E200044455DD0B3484246214602F067FD0DF1BE
:101E30001700FEF71DFE002869D04FF0000914209E
:101E400001F004FD0DF11700FEF712FE0028F6D197
:101E5000B9F1020F9DF8178025D0B9F1030FDFD03B
:101E6000B9F1010F10D0A8F1AA09B9FA89F90DF159
:101E700017004FEA5919FEF7FBFD0028DFD1B9F131
:101E8000010F9DF81780EED108F1FF333F2B46D8A4
:101E90000DF11700FEF7ECFD46460446002839D147
:101EA0009DF8178005462B4601356B44EDB244443E
:101EB000B5420DF1170083F81880E4B207D2FEF79F
:101EC000D7FD00283AD19DF817802B46ECE70DF19D
:101ED0001700FEF7CDFDA0BB9DF817804445A1D1AA
:101EE000002E00F0BE809DF8181006F1FF38022980
:101EF0005FFA88F872D004292BD07F48424602F05E
:101F0000FDFC0DF11700FEF7B3FD002895D19DF8FB
:101F10001780A8E700244FF0020925468FE74146C5
:101F2000764802F0EBFC0DF11700FEF7A1FD4646E6
:101F3000044648B99DF81780054694E74FF002091A
:101F40007DE74FF003097AE74FF000094C464D4614
:101F500075E7B8F1030F40F29A809DF819909DF84B
:101F60001A2089F0F803B8F1040F1AF8033083EA55
:101F700002039DF81B201AF8033083EA0203BDF820
:101F80001A201AF803109DF81C3075D08B4275D1B9
:101F90005B4B9DF81D801B78434500F01E81584B1C
:101FA00083F8008011B2A9F1200307EE901A122BDA
:101FB00072D8DFE813F0FF00EC00D9007100710067
:101FC0007100710071007100710071007100710089
:101FD000710071007100C70088007600414614222C
:101FE000484802F08BFC4246DFF854814048012308
:101FF000C8F84030444BD8F84095C3F800900DF134
:10200000190102F046FD0123C8F84030D8F84035E8
:10201000CBF80030DBF800303C4AA3EB0903136037
:10202000D7ED007AF4EEC87AF1EE10FA06DCD7EDBF
:10203000027AF4EEC87AF1EE10FA24DD3868D7F8A7
:10204000089003F0B1FC024648469046894603F0EA
:10205000ABFC4246CDE900014B462D4802F04EFC58
:10206000E5E62C4802F04AFC0DF11700FEF700FDF2
:1020700000287FF4E2AE4AE78B4293D01A46264806
:1020800002F03CFCD3E6254802F038FCCFE641469E
:10209000234802F033FCCAE64946224802F02EFCEF
:1020A000C5E6F8EEE77AF2EE046A87EEA67A1E4BF2
:1020B00083ED027A986803F077FC02460B461B48D2
:1020C00002F01CFCB3E6F8EEE77ADFED196A164B76
:1020D00087EEA67A83ED017A586803F065FC024624
:1020E0000B46144802F00AFCA1E600BF0000614460
:1020F0000C0000205066000028660000B06300005D
:1021000010B70020E86300005C80002014B70020B6
:1021100018640000CC630000A46400004C6400005C
:1021200080640000F065000000000020CC65000025
:102130000000C842A865000018B70020D46700005E
:1021400000A00040F8EEE77AF2EE046A87EEA67A85
:10215000254B83ED007A186803F026FC02460B46F7
:10216000224802F0CBFB62E6F8EEE77AF2EE046A70
:1021700087EEA67A1E4B17EE100A83ED027A03F063
:1021800013FC02460B461B4802F0B8FB4FE6F8EE84
:10219000E77AF2EE046A87EEA67A154B17EE100A7C
:1021A00083ED017A03F000FC02460B46124802F070
:1021B000A5FB3CE6F8EEE77AF2EE046A87EEA67A33
:1021C0000B4B17EE100A83ED007A03F0EDFB02468D
:1021D0000B460A4802F092FB29E609480392414661
:1021E00002F08CFB039ADAE6000000208065000014
:1021F00024B700205C65000038650000146500000D
:10220000DC6400002DE98048DFF83CA1DFF83CB138
:10221000DFF83C91DFF83C81424C9FED43BADFEDA3
:1022200043AA9FED43AADFED439A9FED439A434DA6
:1022300085B068E0DAED006A99ED007AD8ED007AB1
:10224000B6EE006A76EE866A37EE0A7AF4EECB6A6C
:10225000F1EE10FAB4EEE97AD2BFCAED006AF0EE00
:102260006A6ACAED00AAF1EE10FAC8BFBAEE046AB3
:1022700077EE897AC4BFB0EE467A89ED006A9FEDA9
:10228000306AD8BF89ED007AF4EEC67AF1EE10FA22
:1022900095ED006A95ED018AD5ED028AC8BFF9EE89
:1022A000045A76EE266AC8BFF0EE657A28EE078AF1
:1022B00078EEA78AD8BFF0EE675A16EE900AC8EDFE
:1022C000005AC4ED006A84ED018AC4ED028A03F06D
:1022D0006BFB064618EE900A0F4603F065FB0246BC
:1022E0000B4618EE100ACDE9022303F05DFB02460F
:1022F0000B46CDE90023134832463B4602F0FEFA76
:10230000662001F0A3FA9BF80030002B92D1012344
:10231000D4ED006A94ED017AD4ED027A8BF80030A6
:102320008EE700BF24B700200000D7430000AA4377
:10233000CDCC4C3E0000B442CDCCCC3D00000020C2
:102340000000824280660000A4A60020A8A600200B
:10235000A0A600209CA600200378022B08D0012B09
:1023600006D0032B00D07047034B00221A60704741
:102370004068FEF7F7B900BFFC58012070B58CB07B
:1023800002F0B4F802F0BCF800F012FA002840F0B5
:10239000A980002000F02CFA00210846FEF73CF846
:1023A000002840F0A580544DFDF7CCFF0FCD06ACC2
:1023B0000FC495E8030084E803005048504B029393
:1023C0004FF40065CDE903504E4A0595072302A955
:1023D00006A8FEF7DBFA002840F087804A484B4CFD
:1023E00002F08CFA4A4B4B4A1A604B494B484C4A14
:1023F00058609A60D9601C610225002405220021E2
:10240000484802F0D1FA23464FF42072CDE9005437
:102410004549464801F0EAF80146454802F06EFA9F
:1024200023464FF42072CDE900544249424801F05E
:10243000DDF80146414802F061FA03234FF42072AF
:10244000CDE900343E493F48234601F0CFF801264C
:1024500001463D4802F052FA23464FF420723B49B0
:102460003B48CDE9006401F0C1F80146394802F06B
:1024700045FA394B39493A4804254FF44072CDE9C1
:102480000053234601F0B2F80146364802F036FA0E
:10249000354936480096364A0C60486010308D60E9
:1024A000234601924FF40072C8603249324801F06D
:1024B0009DF80146314802F021FA314A314932484B
:1024C0000523CDE9003223464FF4007201F08EF867
:1024D000214602462D4802F011FA01F099F803F066
:1024E000D7FAFEE7FEF73EF953E7FEF73BF975E74B
:1024F000FEF738F957E700BFA8660000B0A6002035
:10250000B0AE002059230000C06600000000C842A1
:1025100024B700200000AF430000A042000020418B
:102520000000C8411CB70020E06600000522000042
:10253000E866000000670000B91C000008670000A2
:1025400024670000911B0000306700004C6700000A
:10255000191B000058670000B8B600207067000023
:10256000FD1D00007C670000BCB60020014000207B
:10257000B0B6002094670000D51D0000A0670000E1
:10258000B4B60020B4670000E51A0000BC67000084
:1025900010B44FF08053D3F83021082A2FD06A4A64
:1025A000D2F8883043F47003C2F88830BFF34F8FFD
:1025B000BFF36F8F4FF08053D3F83021082A11D02A
:1025C0004FF01023D3F80022002AC0F28C80D3F8F9
:1025D0000432002BC0F287805C4B5D4A1A605DF8C4
:1025E000044B7047D3F83431032BE9D94FF0102254
:1025F0004FF08043D2F80822C3F85825E0E74FF0A7
:1026000080410020C1F80C01524AC1F81001C1F804
:102610003805D3F80404C2F82005D3F80804C2F83A
:102620002405D3F80C04C2F82805D3F81004C2F826
:102630002C05D3F81404C2F83005D3F81804C2F8F6
:102640003405D3F81C04C2F84005D3F82004C2F8BE
:102650004405D3F82404C2F84805D3F82804C2F886
:102660004C05D3F82C04C2F85005D3F83004C2F856
:102670005405D3F83404C2F86005D3F83804C2F81E
:102680006405D3F83C04C2F86805D3F84004C2F8E6
:102690006C05D3F83401D3F84444C2F8704550B106
:1026A0004FF08043D3F80024D20744BF6FF00102FB
:1026B000C3F8002473E72848284CC0F88C4602F57C
:1026C0004052FB20C2F81805D1F8E42ED3F8584246
:1026D0002348134664F303034FF40072C1F8E43E49
:1026E000C0F84026DCE71F4A0123C2F80435D2F8BF
:1026F0000034002BFBD04FF010231221194AC3F8ED
:102700000012D2F80034002BFBD04FF0102312211E
:10271000144AC3F80412D2F80034002BFBD0002373
:102720001049C2F80435D1F80034002BFBD0BFF3B8
:102730004F8F05490C4BCA6802F4E0621343CB602B
:10274000BFF34F8F00BFFDE700ED00E014800020D5
:102750000090D00300C000400050004048810300BA
:102760000090024000E001400400FA0510B568B98D
:102770000E4CA368012262703BB1D3E90023002014
:10278000A2609847A368002BF7D110BD0128FCD1A7
:10279000064C2369A070002BF7D0D3E90023012059
:1027A000226198472369002BF7D110BD38B700206C
:1027B00038B50C4C237843B185250B4BD3F8003446
:1027C0000BB10123A370284638BD08486360A3609D
:1027D0002361E36000F042F8054600F04BF8012366
:1027E0002370EAE738B70020000001406D270000A1
:1027F00038B5194DAB78044673B110B14368012068
:1028000098470020FEF79AF9EB680133EB60BDE8CA
:1028100038400020FEF79AB903F0FF00FEF78EF96A
:102820003CB12A697AB1134601E01B685BB19C4256
:10283000FBD1EB6863B1EB680133EB60BDE8384076
:102840000020FEF783B9EB6822602C61002BF2D1E7
:1028500000F022F8EFE700BF38B70020044A1379F0
:1028600023B9012110609180184670478520704778
:102870004CB70020074B1A68D20704D4C02283F853
:10288000002301221A604FF080430122C3F818256B
:10289000704700BF00E100E04FF08043002282B0AB
:1028A000C3F80421D3F804210192019802210122E6
:1028B000C3F804139A6002B0704700BF10B54FF020
:1028C000804382B0D3F8002162B10021134AC3F8DB
:1028D0000011D3F80011507900910121009CC3F838
:1028E0000813B8B14FF08043D3F8042182B100221D
:1028F000C3F80421D3F8042101920221074A019868
:10290000C3F808131368012002B0BDE8104018474F
:1029100002B010BD136851719847E3E74CB700202F
:102920002DE9F043002385B0CDE90233B44AD2F853
:102930000011012900F057811E46B14BD3F8042144
:10294000012A00F04181AE4BD3F80821012A00F0A2
:102950002C81AB4BD3F80C21012A00F01781A84B36
:10296000D3F81021012A00F00281A54BD3F81421DD
:10297000012A00F0ED80A24BD3F81821012A00F0C3
:10298000D0809F4BD3F81C31012B00F081809C4BF1
:10299000D3F87C21012A05D0002E40F0A38005B099
:1029A000BDE8F0830022C3F87C21D3F87C31019389
:1029B0004FF0A042019BD2F82015924B0291C2F831
:1029C0002015D3F820250392C3F82025002E40F0CF
:1029D00087808D4E8B4C4FF0A04596F954305A1C91
:1029E00043D0C3F3C201694403F007000F7A012208
:1029F00082401742D9B203F03F0036D01F2887BF6C
:102A000003F01F03A04603464FF0A04808EB8302E3
:102A10003718D2F800C7D2F800E797F924702EF4DF
:102A2000403EC2F800E7CCF3014CD2F8009756F8CC
:102A30002770BCF1020F14BF4FF4003E4FF4403E2C
:102A40004EEA090EC2F800E7012202FA03F3C8F8C1
:102A5000203557B18909032918D0BCF1020F13D0D2
:102A6000BCF1030F01D1022910D0D5F82035029313
:102A7000C5F82035D4F8202503921343C4F8202547
:102A8000ABD105B0BDE8F0839142EED1B847ECE799
:102A90005B4BD3F8042311067FF579AF0022C3F80E
:102AA0001C21D3F81C210092D3F87C31009A012B11
:102AB00046F0800616D1524B0022C3F87C21D3F891
:102AC0007C3101934FF0A042019BD2F820154D4B71
:102AD0000291C2F82015D3F820250392C3F82025CF
:102AE00046F00046484F00240125A30003F180432F
:102AF0002E4203F5C0430BD0D3F8100557F824201D
:102B0000D3F81015C0F30520C1F3014102B190477D
:102B10000134082C4FEA4505E7D1002EBFF63FAF40
:102B200057E7D3F8042350067FF52BAF0022C3F8F4
:102B30001821D3F818210092D3F81C210099012AFA
:102B400046F04006A4D0D3F87C31012BCAD1B2E7BD
:102B5000D3F8042394067FF50EAF0022C3F81421A6
:102B6000D3F814310093009B46F0200603E7D3F816
:102B70000423D5067FF5F9AE0022C3F81021D3F85F
:102B800010310093009B46F01006EEE6D3F80423C4
:102B900017077FF5E4AE0022C3F80C21D3F80C31FF
:102BA0000093009B46F00806D9E6D3F804235207A9
:102BB0007FF5CFAE0022C3F80821D3F80831009387
:102BC000009B46F00406C4E6D3F8042391077FF582
:102BD000BAAE0022C3F80421D3F804310093009B5D
:102BE00046F00206AFE6D2F8046316F001063FF4A1
:102BF000A4AEC2F80031D2F800310093009B9CE6ED
:102C0000006000400003005058B70020F8B5431E94
:102C10000A3311D810F0070300F1080465D0A3F1BE
:102C20000902A24208D31030C41A00F02DFD344925
:102C30000868224620BB0AE000F026FD30490A68F9
:102C400022B1002500F028FD2846F8BD14462D4B82
:102C50002D4E58072D4818BF073320F00700086095
:102C600018BF23F007032A491D46C31A0B602949E0
:102C700035600B6000217160C0E90011C5E90003F7
:102C8000002ADEDD234F3E68A642DAD31E490B68D8
:102C900003E01A6822B1194613465A68A242F8D3D3
:102CA0008342CED01D4655F8082B0A605A68101B87
:102CB000102806D91A1950605C60086818510A601B
:102CC0005A6813490868B61A8642134838BF0E601E
:102CD00001683E6042F00042002401311C605A60ED
:102CE000016000F0D9FC2846F8BD00F0CDFC044995
:102CF000086822460028AAD0002CC3DAA1E700BF4A
:102D0000C4B70020D0B70020C8B70020C8570120A2
:102D1000BCB70020C0B70020B8B7002090B338B5CA
:102D200050F8043C002B044600DB38BD50F8082C5A
:102D3000002AFAD123F0004340F8043CA0F1080532
:102D400000F0A2FC1B4854F8041C02681A4B0A4409
:102D500002601A461B689D42FBD8506802EB000CCB
:102D6000654510D0681883421ED044F8083CAA423A
:102D700018BF1560114A136801331360BDE838406D
:102D800000F08ABC70470144501883425160F1D171
:102D90000B4800689842EDD015465B680B446B60A9
:102DA00013681B682B60E2E7054800688342F4D192
:102DB000DBE700BFC0B70020C8B70020B4B70020D1
:102DC000C4B7002000F108034FF0FF310022C0E932
:102DD0000131C0E903330260704700BF0023036183
:102DE000704700BF30B40D686B1C10D000F10803B1
:102DF0001C465B681A68AA42FAD94B6099608C60DD
:102E0000616008610368013330BC03607047046986
:102E10006368F2E7D0E9011203698A604168516092
:102E20005A68824204BF82685A60002202611868B0
:102E300001381860704700BF70B5A0B3A1FB002334
:102E40000E4605467BBB01FB00F010F1490F2AD866
:102E50004830FFF7DBFE044628B33EB300F14803D9
:102E60002360C4E90F5601F059FAD4E90F23216811
:102E7000616003FB02F2D31A0A440B44A2600020F3
:102E8000FF22A063E36084F8442004F1100084F87A
:102E90004520FFF797FF04F12400FFF793FF01F0AF
:102EA00047FA204670BD0024204670BD0346D7E790
:102EB0002DE9F043044685B08846019201F02EFAD0
:102EC000A56B002D40F01E81019B002B00F0CD80F2
:102ED00002A800F007FF2F4604F1240601F028FAAB
:102EE00000F0D2FB01F01AFA94F84430FF2B08BF2F
:102EF00084F8447094F84530FF2B08BF84F845707F
:102F000001F016FA01A902A800F0F8FE00285BD132
:102F100001F004FAA36B002B40F0AD8004F124090A
:102F200001F006FA0199484600F0B2FD01F0F6F909
:102F300094F845305DB2002D04DC11E06B1EDAB26E
:102F40005DB26AB1636A484653B100F04FFE002893
:102F5000F4D000F003FF6B1EDAB25DB2002AF1D1AB
:102F6000FF2384F8453001F0E3F901F0D7F994F834
:102F700044305DB2002D14DD04F1100903E06B1E36
:102F8000DAB25DB26AB12369484653B100F02EFE51
:102F90000028F4D000F0E2FE6B1EDAB25DB2002A27
:102FA000F1D1FF2384F8443001F0C2F900F074FB42
:102FB000002851D1674B4FF080525A6040BFBFF399
:102FC0004F8FBFF36F8F47E001F0A8F994F84530B9
:102FD0005DB2002D04DC11E06B1EDAB25DB26AB1A5
:102FE000636A304653B100F001FE0028F4D000F0CF
:102FF000B5FE6B1EDAB25DB2002AF1D1FF2384F870
:10300000453001F095F901F089F994F844305DB24A
:10301000002D14DD04F1100903E06B1EDAB25DB27D
:103020006AB12369484653B100F0E0FD0028F4D0AE
:1030300000F094FE6B1EDAB25DB2002AF1D1FF23DC
:1030400084F8443001F074F900F026FB01F066F9D1
:10305000A36B53B101F06CF901F060F9A56B002D81
:1030600050D1019B002B7FF439AF01F061F90020B2
:1030700005B0BDE8F08301F05BF901F04FF994F879
:1030800045305DB2002D14DD04F1240903E06B1E10
:10309000DAB25DB26AB1636A484653B100F0A6FD88
:1030A0000028F4D000F05AFE6B1EDAB25DB2002A9E
:1030B000F1D1FF2384F8453001F03AF901F02EF9FF
:1030C00094F844305DB2002D14DD04F1100903E0E2
:1030D0006B1EDAB25DB26AB12369484653B100F0A3
:1030E00085FD0028F4D000F039FE6B1EDAB25DB227
:1030F000002AF1D1FF2384F8443001F019F900F0DF
:10310000CBFAA9E7226C52B1E168A3681144994255
:10311000E16024BF2168E160404601F0BAFC236908
:10312000013DA5632BB901F003F9012005B0BDE80D
:10313000F08304F1100000F059FD0028F3D0054B96
:103140004FF080525A6040BFBFF34F8FBFF36F8F75
:10315000E9E700BF00ED00E0B9B10E4B5A689042BC
:1031600014D010B41C68DA6834B190420BD09A685D
:103170004AB15DF8044B7047904204D0C3E9001097
:103180005DF8044B70470833F8E77047C3E9001057
:10319000704700BFD057012070B505460E46144653
:1031A00001F0BCF895F84430FF2B04BF002385F8EC
:1031B000443095F84530FF2B04BF002385F8453097
:1031C00001F0B6F8AB6B002B43D001F0A7F895F8EF
:1031D00045305CB2002C14DD05F1240603E0631ECB
:1031E000DAB25CB26AB16B6A304653B100F0FEFCF1
:1031F0000028F4D000F0B2FD631EDAB25CB2002AFF
:10320000F1D1FF2385F8453001F092F801F086F8FE
:1032100095F844305CB2002C14DD05F1100603E093
:10322000631EDAB25CB26AB12B69304653B100F06A
:10323000DDFC0028F4D000F091FD631EDAB25CB230
:10324000002AF1D1FF2385F84430BDE8704001F039
:103250006FB82246314605F1240000F065FCB4E762
:10326000F8B5044601F05AF8364A374D1368013371
:1032700013602B68002B3CD0344EE36A3268002A7E
:1032800031D0334933480A6801320A6002689A42F1
:10329000314A38BF036003EB830302EB8303211D34
:1032A0005B68A3609868E06041609960E36A03EB43
:1032B0008303990002EB8303636153580133535036
:1032C00001F036F833686BB12A68E36AD26A9A4231
:1032D00008D2224B4FF080525A6040BFBFF34F8F4D
:1032E000BFF36F8FF8BD2A68D26A9A4298BF2C60EC
:1032F000C7E72C601368012B02D0E36A134EC0E7C6
:103300001548174F174EFFF75DFD1748FFF75AFD99
:103310001648FFF757FD3846FFF754FD3046FFF7D4
:1033200051FD1348FFF74EFD1248FFF74BFD1248C1
:10333000FFF748FD114B124A1F601660E36A034E07
:103340009FE700BF08580120B8580120FC57012012
:10335000EC570120005801207C58012000ED00E0CE
:10336000685801205458012090580120A458012089
:1033700038580120245801200C58012050580120B1
:103380004C5801202DE9F8439600074630468946FF
:103390009846FFF73BFC00284BD005466420FFF71A
:1033A00035FC0446002841D06422002101F0FCFADB
:1033B000324625632846A52101F0F6FA236B043E28
:1033C0001E4426F00706B9F1000F11D009F1FF3CA9
:1033D00009F11F0104F1330E01E08C4505D01CF802
:1033E000012F0EF8012F002AF7D1002384F8533063
:1033F000089D022D28BF0225201DE5626565FFF7A7
:10340000EDFC04F11800FFF7E9FCC5F10303A3612B
:103410002461646242463946304600F047FF099B0A
:10342000206003B11C602046BDE8F8832846FFF702
:1034300075FC00242046BDE8F88300BF2DE9F04F5D
:10344000614B1C6801341C60002C7CD0DFF890A11B
:10345000DAF800309C42C0F08E805C4D2B681B680F
:10346000002B00F0A8804FF0000C594ADFF874815F
:10347000DFF874B1664659E0D3E90270D3F81490CE
:10348000B8609F684760D9F80400884204BFD868D4
:10349000C9F804005E61D9F800000138C9F80000DD
:1034A000D3F82890B9F1000F11D0D3E90770B860B4
:1034B000DF694760D9F80400704504BF186AC9F88D
:1034C00004009E62D9F800000138C9F80000D86AEB
:1034D000DBF8009000EB800E02EB8E0E484588BFB3
:1034E000CBF80000DEF804009860D0F808E0C3F8DC
:1034F0000CE0CEF804108160D86AD8F800E0D5F866
:10350000009000EB800002EB8001596152F820101E
:10351000013142F82010D86ADEF82C10D9F80030BA
:10352000884288BF4CF0010C002B48D02B68DB6828
:10353000DB685868844203F1040103F1180E9BD242
:10354000CAF800001CE0214B224A18681168196073
:10355000214910600A6801320A601A68126812BBB9
:10356000DFF87CA04FF0FF33CAF80030DAF8003003
:103570009C42BFF472AF164ADFF868804FF0000C2F
:10358000D8F800301549DB6A096803EB830352F869
:103590002300012898BF002914BF0120002040EA21
:1035A0000C00BDE8F08F1B68DFF834A0DB681B68F7
:1035B000CAF800304CE7064ADFF828809C464FF0F6
:1035C000FF33CAF80030DBE70458012050580120CF
:1035D0007C5801204C580120F0570120F45701205D
:1035E000E8570120B85801200058012010B582B0DA
:1035F000049C0094059C0194FFF7C4FE20B1FFF7E2
:103600002FFE012002B010BD4FF0FF3002B010BD00
:1036100010B58AB02022002102A801F0C5F9134B91
:10362000134A02920024CDE900431248234602A91E
:103630004FF40072FFF7A6FE28B1FFF711FE00F06D
:10364000A1FD012803D00C4B1B680AB010BD40231C
:1036500083F3118809490A4A0A4B4FF0FF3CC1F82D
:1036600000C010601C6000F033FEECE7E45701205E
:1036700049444C45D9380000D4680000E85701207F
:10368000FC57012004580120024A136801331360DB
:10369000704700BFE05701202DE9F84F604C00F063
:1036A0003DFE2368013B23602068002840F0A08095
:1036B0005C4B1B68002B00F09B805B4D2B68002B44
:1036C00000F0AA80594E5A4ADFF878B1DFF87881C5
:1036D0004FF0010EEB68DB68DF69196AD3F82890B8
:1036E000B960DF694F60D9F8041003F1180A514539
:1036F00004BF196AC9F804109862D9F80010D6F806
:1037000000A00139C9F800109F68D968D3F8149057
:10371000B9609F684F60D9F8041003F1040C61454B
:1037200004BFD968C9F804105861D9F800100139EC
:10373000C9F80010D96A01EB810902EB89095145EA
:1037400088BF3160D9F804109960D1F80890C3F8A7
:103750000C90C9F804C0C1F808C0D96ADBF8009021
:1037600001EB810C02EB8C01596152F82C100131F4
:1037700042F82C10D96AD9F82C3099423ED92B68DE
:10378000C8F800E0002BA5D12A4B1A681268002A5D
:103790003DD01A68284BD26812681A60274E3568E7
:1037A00095B1012706E0FFF749FE08B1C8F800709F
:1037B000013D08D02368002BF5D03368013D03F1AB
:1037C00001033360F6D13560D8F8003083B11C4B6B
:1037D0001C494FF0805209685A6040BFBFF34F8FB9
:1037E000BFF36F8F012400F0A3FD2046BDE8F88FE2
:1037F000002400F09DFD2046BDE8F88F2B68002BCB
:103800007FF468AF0B4B1A681268002AC1D10A4BCB
:103810004FF0FF321A60C1E7DFF82C80BEE700BF2F
:10382000E057012008580120385801200058012095
:103830007C58012050580120E8570120F8570120FA
:1038400000ED00E0B8580120F45701202DE9F041C7
:1038500050B91A4B4FF080525A6040BFBFF34F8FA0
:10386000BFF36F8FBDE8F081154A16491368164DF6
:10387000013313600446154B154806680F68D3F8EA
:10388000008028680430FFF7C5FA2B682968A4195E
:103890005C600ED238460431FFF7A4FA0D4B1A686B
:1038A000944238BF1C60FFF7F7FE0028D1D0BDE876
:1038B000F08140460431FFF795FAF4E700ED00E0AF
:1038C000E057012050580120B85801204C580120E1
:1038D00004580120E85701202DE9F84F2A4D2B4FBD
:1038E0002B4EDFF8B890DFF8B880DFF8B8A0DFF82B
:1038F000B8B014E000F012FDFB68DC68201DFFF793
:1039000089FA3368013B33602B68013B2B6000F080
:103910000FFD206BFFF702FA2046FFF7FFF92B6837
:10392000002BE7D1D9F80030E3B9D8F80030DB6AD2
:10393000002BF4D1DAF80030012BF0D8154B164AE1
:103940001B6812689B1A012BE9D9DBF800300133A0
:10395000CBF80030D9F800303BB1D8F80030FFF791
:103960009BFEDCE7D8F80030D9E7D8F80030DB6AF6
:10397000002BF4D1074B1868074B1B68C01A0128AD
:10398000EDD900F03DFDEAE7205801202458012040
:1039900008580120E8570120045801200058012050
:1039A000B85801207C580120E0570120014B1868CD
:1039B000704700BF0458012038B50C4D0C4A2B68E5
:1039C000126803449A42044603D02B6823442B60B8
:1039D00038BD00F0A3FC074A13680133136000F000
:1039E000A7FC2B68013C23442B6038BD0458012000
:1039F000E8570120F8570120054B1B680BB9FFF76A
:103A00001DBD044A1368013300201360704700BFD6
:103A1000E0570120F8570120184B1B681BB1184BC9
:103A200001221A60704730B4154A164C13602068A2
:103A3000154B00EB8001820053F82110E1B9411EC3
:103A400001EB81058A0053F825500DB9811E8A00CB
:103A50000A4403EB8200034642685268426008331E
:103A60009A4208BFC268094B08BF4260D2681A6018
:103A7000216030BC1B6870470146E9E7E057012030
:103A8000F4570120005801207C580120B85801202B
:103A90002DE9F0411E4D2B680C4603F11801FFF78C
:103AA000A1F91C4B1C491D4A0E681768D3F8008009
:103AB00028680430FFF7AEF9631C15D02B6829681D
:103AC000A4195C600AD238460431FFF78BF9144B15
:103AD0001A68944238BF1C60BDE8F081404604314A
:103AE000BDE8F041FFF77EB90E4B2A685968916036
:103AF0002A688868D0602A680432426028681A6898
:103B00002C680430013288601A606361BDE8F0817E
:103B1000B85801204C580120045801205058012069
:103B2000E85701200C5801202DE9F041294C436849
:103B30002568D4F800C0EB6126689F68CCF8207037
:103B40000D462168183618317E6099602368224935
:103B50009862036801330360E2B1204A204B096890
:103B600012681B6820680430FFF754F91D4B226867
:103B70005968916022688868D06022680432426087
:103B800020681A6824680430013288601A60636112
:103B9000BDE8F081124B114A0E681768D3F8008017
:103BA00020680430FFF736F923682168AD195D609D
:103BB00005D340460431BDE8F041FFF713B938465C
:103BC0000431FFF70FF9084B1A68954238BF1D60A2
:103BD000BDE8F081B8580120045801205058012058
:103BE0004C5801200C580120E857012010B4C3683C
:103BF000344CDB6824689A6AD3E907018160D8698C
:103C00004860516803F11800814204BF196A51608D
:103C100000219962116801391160002C34D1D3E977
:103C200002015A698160986848605168264C181DE5
:103C3000814204BFD968516000215961116801397E
:103C40001160DA6A21688A42204988BF226002EB4B
:103C5000820201EB820252689A609468DC606060C4
:103C60009060DA6A1A4C02EB8202900001EB820249
:103C70005A610A5801320A5022681268E2B9154A9C
:103C80004FF0FF3111600AE0134A5468DC61A1680B
:103C9000196248601168A06001319A6211600F4991
:103CA000DA6A0B68DB6A9A4283BF0D4B0120186009
:103CB00000205DF8044B70472168064AC96809680E
:103CC0001160ECE7E0570120005801207C580120EA
:103CD00050580120E857012038580120B8580120D9
:103CE000F4570120034A044B12681B68C0E9002303
:103CF000704700BFF057012004580120F8B50D4669
:103D0000044600F00BFB2B68124A581C11681BD0AC
:103D1000DFF844C0D4E90060DCF80070BE4208D08F
:103D2000884206D800232B60012400F001FB2046C6
:103D3000F8BD0F1ABB42F5D95B1ADCF80010126807
:103D400003442B60C4E90012002400F0F1FA20467D
:103D5000F8BD00BF04580120F0570120014B01229B
:103D60001A607047F45701200B4B186818B90B4BB9
:103D70001B6813B1704700207047094A12680AB1E6
:103D800018467047074B084A1B681068013B984269
:103D90000CBF02200120704738580120F457012041
:103DA000F8570120085801200C580120054B1B68CA
:103DB00033B1054B1868B0FA80F0400940007047F5
:103DC00001207047FC570120E05701202DE9F04FFA
:103DD000AC4CAD4FAD4DAE4E87B04FF0000A2368EE
:103DE000D3F80080B8F1000F40F0F780FFF74CFCEB
:103DF000FFF7DCFD3B688342834600F2FE802B68C0
:103E000038601A68B2FA82F252093068A8EB0B01E6
:103E1000FFF7C2F9FFF740FC40B99E4B4FF08052CC
:103E20005A6040BFBFF34F8FBFF36F8FCDE902AA37
:103E3000CDE904AA3068002202A9FFF739F800286A
:103E4000CDD0029B002B6EDBDDF810B0BBF1000F74
:103E5000F0D0DBF814301BB10BF10400FEF7DAFFF1
:103E6000FFF7A4FD3B689842804665D3029BC7F8E4
:103E70000080013B082BDDD8DFE803F00505442B6B
:103E80004B0505442B009BF82410039ADBF81830EF
:103E9000CBF810B041F001008BF82400D0182CBFF3
:103EA0004FF0010C4FF0000C4045CBF8040000F23D
:103EB0008880A8EB020293421ED8480700F1DF80F9
:103EC00021F001018BF82410DBF820305846984788
:103ED000B0E7039A9BF82430CBF8182002EB0801D6
:103EE00043F0010341458BF82430CBF80410CBF8A4
:103EF00010B06CD8002A9DD028680BF10401FEF7A1
:103F000071FF97E79BF8243023F001038BF82430EE
:103F100090E79BF824309A0740F1AD8023F001032D
:103F20008BF8243086E7039BDDE904019847029B68
:103F3000002BFFF67FAF87E723681A68002A3CD082
:103F4000CDE900B00AE022F0010288F82420D8F878
:103F500020204046904723681A6862B3DA68D2F896
:103F60000C80D2F8009008F1040B5846FEF752FF7F
:103F700098F824205307E6D5D8F81820C8F8108000
:103F800009EB020019EB0209C8F804000ED2D8F8B8
:103F9000203040469847D8F81830C8F8108009EB10
:103FA000030219EB0309C8F80420F0D32868594626
:103FB000FEF718FFCBE7DDE900B82A6822602B6026
:103FC00054E7424503D9BCF1000F3FF476AF2068B7
:103FD0000BF10401FEF706FF2CE7DB68D3F8008045
:103FE000FFF752FBFFF7E2FC3B689842834604D39D
:103FF0008045386079D9002207E723681A6892B3B0
:10400000CDF800B00AE023F0010388F82430D8F896
:1040100020304046984723681A6812B3DB68D3F80B
:104020000C80D3F8009008F1040B5846FEF7F2FE1E
:1040300098F824305807E6D503E0D8F820304046F9
:104040009847D8F81830C8F8108009EB030219EB2C
:104050000309C8F80420F0D328685946FEF7C2FEC9
:10406000D5E7DDF800B02A6822602B60C7F800B001
:10407000FFF712FBDAE65846FEF750FEDAE6039A3F
:104080001A4411E0CC580120BC580120C858012026
:10409000C458012000ED00E08B4220D8DBF820302E
:1040A0009847DBF818304A4613EB02092CBF4FF053
:1040B000010C4FF0000CC8455846A8EB0201CBF8A4
:1040C0000490CBF810B0E7D2904502D2BCF1000FBB
:1040D000E4D020680BF10401FEF784FEF4E62868C2
:1040E0000BF10401FEF77EFEEEE6FFF7D5FA23683A
:1040F000DB68DB68009303F104094846FEF78AFE9B
:10410000009B93F82420510707D422F0010283F882
:1041100024201A6A1846904788E61A46CDF804907B
:104120004346D946904605E0614521D8D8F820306D
:1041300098475B46D8F81810C8F8108013EB010BAD
:104140002CBF01220022CB454046A9EB030CC8F846
:1041500004B0E9D94B4501D9002AE7D0DDF8049035
:104160002068CDF800804946FEF73CFE009BD0E772
:10417000DDF804902868CDF800804946FEF732FE4D
:10418000009BC6E7F0B5174C83B000F0C7F8256870
:104190007DB100F0CDF8206848B1134A13491448A6
:1041A0000223CDE9003200235022FFF71FFA03B0AB
:1041B000F0BD104F104E3846FEF704FE3046FEF7B5
:1041C00001FE0E4B1F600E4B2A46102120201E6060
:1041D000FEF732FE20600028DBD00A49FEF7BCFF64
:1041E000D7E700BFC4580120C0580120005B000081
:1041F000CD3D0000E4580120D0580120CC580120CA
:10420000C8580120F85A00000548006880F3088863
:1042100062B661B6BFF34F8FBFF36F8F00DF00BF91
:1042200000000000064B19680868B0E8F04F80F302
:104230000988BFF36F8F4FF0000080F3118870473B
:10424000B8580120EFF30980BFF36F8F144B1A6841
:104250001EF0100F08BF20ED108A20E9F04F10600B
:104260004DF8043D4FF0400080F31188BFF34F8FAD
:10427000BFF36F8FFFF7D0FB4FF0000080F3118882
:1042800008BC19680868B0E8F04F1EF0100F08BFAE
:10429000B0EC108A80F30988BFF36F8F704700BFBE
:1042A000B8580120402383F31188FEE710B44FF083
:1042B0008073064C40F8043C6FF0020340E9034170
:1042C00040E9093244385DF8044B7047A5420000CC
:1042D0000F4C08B5E02384F8223000F075F80D4B40
:1042E00000221A60D4F888300B4A43F47003C4F8F3
:1042F0008830536B43F040435363236943F010030A
:104300002361FFF781FF402383F31188FEE700BF9D
:1043100000ED00E0F858012000EF00E0402383F3B7
:104320001188024A1368013313607047F85801205E
:10433000034A1368013B13600BB983F3118870477C
:10434000F858012070B51E4B002282B0C3F84021FE
:10435000D3F8401101910199EFF31186402181F3C7
:104360001188D3F80445C3F80021D3F80031009335
:10437000009BFFF71BFB201A20F07F4323F0010373
:1043800020F07F459BB96C1E6DB10025FFF734FB13
:1043900023460543013C002BF8D125B1094B4FF0D2
:1043A00080525A6040BF86F3118802B070BDFFF79B
:1043B000FDFC0228E7D0FFF71FFB0546EDE700BF35
:1043C0000010014000ED00E010B50020FEF710FAEB
:1043D000094B0A4901221F24C3F808450220C3F8EB
:1043E00004239A601A60E022C3F8440381F8112381
:1043F0004FF400330B6010BD0010014000E100E0FD
:1044000070B5054684B072B6354CD4F80465FFF734
:10441000ABFC002846D0334BAB4228BF2B469C4612
:10442000F31823F07F430122C4F80823C4F8403571
:104430000023C4F84031D4F840310193019B4FF47C
:104440008033C4F80433BFF34F8F75B3264A20BFBF
:10445000D2F80031D2F804110B43F8D0204B4FF4BE
:104460008031C3F808130021C3F84011D3F840018C
:1044700003900398C3F80011D3F8001102910121B1
:104480000298C3F80413D3F80405801B20F07F4082
:1044900060454FF4003328BF6046C2F8803108B150
:1044A000FFF78AFA62B604B070BDC4F80833C4F8E6
:1044B0004051D4F840310393039BC4F80051D4F821
:1044C00000310293084B0299C4F804234FF40031E1
:1044D000D4F80425C3F8801162B604B070BD00BFE3
:1044E00000100140FDFFFF0000E100E008B501F011
:1044F000CBFA01F0C5FABDE8084001F0B9BA00BF37
:104500005C4B5D4930B4002201240220C3F89420A2
:10451000C3F89820C3F8A020C3F89C20C3F89840A3
:10452000C3F8A0200324C3F89C20C3F898000420FB
:10453000C3F8A020C3F89C20C3F89840C3F8A0207B
:104540000524C3F89C20C3F898000620C3F8A020D7
:10455000C3F89C20C3F89840C3F8A020C3F89C205F
:10456000C3F898000720C3F8A020C3F89C20C3F824
:104570009800C3F8A020C3F89C20D1E901020D687F
:10458000C3F8985020F01F00284340F01000C3F8F3
:104590009C00013AC868B2FA82F2C2F11F0240EAF6
:1045A000420040F00100C3F8A000BFF36F8FBFF3DB
:1045B0004F8FD1E905020D69C3F8985020F01F0014
:1045C000284340F01000C3F89C00013AC869B2FAD1
:1045D00082F2C2F11F0240EA420040F00100C3F83B
:1045E000A000BFF36F8FBFF34F8FD1E909020D6AAF
:1045F000C3F8985020F01F00284340F01000C3F883
:104600009C00013AC86AB2FA82F2C2F11F0240EA83
:10461000420040F00100C3F8A000BFF36F8FBFF36A
:104620004F8FD1E90D2001380D6BC96BC3F898503D
:10463000B0FA80F0C0F11F0022F01F0241EA4001F1
:104640002A4342F0100241F00101C3F89C20C3F854
:10465000A010BFF36F8FBFF34F8F5A6A42F48032BE
:104660005A62C3F89440BFF36F8FBFF34F8F30BCD3
:10467000704700BF00ED00E018800020214B5A6811
:104680009A6A91073CD59A6A120639D5596B1E4B26
:10469000994223D31D4B994220D210B583691C4CFB
:1046A0001A8802F47842B2F5684F2CBF0433023303
:1046B00083612368174A184801332360012301608E
:1046C0001364164BD2F8402515481A6000F016F90D
:1046D0000C4A936A43F0FF03936210BD114B994259
:1046E00002D3114B9942D8D3104B994202D3104BAD
:1046F0009942D2D30F4B994202D30F4B9942CCD35C
:10470000704700BF00ED00E04000002018010020CD
:104710006480002000A000406080002058800020BD
:10472000F05E0000000400200008002000000020CF
:104730004000002018010020680100201EF0040F36
:104740000CBFEFF30880EFF30980FFF797BF00BFBE
:1047500008B5064B044613B10021AFF30080044BAB
:104760001B6803B19847204600F0B8FF0000000026
:10477000385A0120002310B50446C0E90033C0E9CF
:104780000433836081814366C281836119460822B4
:104790005C3000F009F90D4B63620D4BA3620D4BC9
:1047A000E3620D4B23630D4B24629C4206D003F160
:1047B0006802944202D0D0339C4205D104F15800E3
:1047C000BDE8104000F062B910BD00BF21490000F3
:1047D000434900007B490000A14900000059012025
:1047E000024A0349034800F06BB800BF688000200C
:1047F000455300007880002041680C4B994210B569
:10480000044601D000F09EFDA168094B994202D0F8
:10481000204600F097FDE168064B994204D02046FF
:10482000BDE8104000F08EBD10BD00BF0059012052
:1048300068590120D05901200C4B0D4A0D4810B584
:1048400004211A600022FFF795FF0A4B01221C4643
:10485000092103F16800FFF78DFF04F1D000022267
:10486000BDE810401221FFF785BF00BF385A012074
:10487000E147000000590120014800F008B900BFDD
:10488000415A0120014800F003B900BF415A0120FC
:1048900010B50446FFF7F0FF236A1BB1BDE81040D6
:1048A000FFF7F0BF044B2362044B1B68002BF5D1CC
:1048B000FFF7C2FFF2E700BFF9470000385A0120B6
:1048C0002DE9F8430746884614460026D4E90195A9
:1048D000B9F1010905D52468002CF7D13046BDE8AF
:1048E000F883AB89012B07D9B5F90E30013303D01A
:1048F00029463846C04706436835E9E70FB407B58F
:10490000064904AB086853F8042B8168019300F052
:10491000F1F903B05DF804EB04B070477480002037
:1049200010B50C46B1F90E1000F068F80028ABBFC6
:10493000636DA3891B1823F48053ACBF6365A38107
:1049400010BD2DE9F0411F468B89DB0505460C465D
:10495000164605D5B1F90E100223002200F03CF8EE
:10496000A389B4F90E1023F48053A38132463B4649
:104970002846BDE8F04100F053B810B50C46B1F937
:104980000E1000F029F8B4F90C30421C0BBF23F4D0
:10499000805343F48053A381A38118BF606510BD89
:1049A000B1F90E1000F008B802440346934200D15A
:1049B000704703F8011BF9E738B5064D002304469C
:1049C00008462B6000F05CFE431C02D12B6803B14B
:1049D000236038BD3C5A012038B5074D04460846CF
:1049E000114600222A601A4600F062FE431C02D1E2
:1049F0002B6803B1236038BD3C5A012038B5074D00
:104A000004460846114600222A601A46FCF708FAB6
:104A1000431C02D12B6803B1236038BD3C5A0120EE
:104A200038B5074D04460846114600222A601A464A
:104A3000FCF7E8F9431C02D12B6803B1236038BDB1
:104A40003C5A012070B50D4B0D4D5B1B9C10002690
:104A5000A64209D101F000F80A4D0B4B5B1B9C10DC
:104A60000026A64205D170BD55F8043B9847013693
:104A7000EEE755F8043B98470136F2E7C480002082
:104A8000C4800020C4800020C88000207047704788
:104A900070470A44914200F1FF3300D1704710B5CE
:104AA00011F8014B03F8014F9142F9D110BD0000FC
:104AB00038B50546002941D051F8043C0C1F002BA5
:104AC000B8BFE41800F0E0F81D4A136833B963601A
:104AD00014602846BDE8384000F0DCB8A34208D98D
:104AE000206821188B4201BF19685B680918216092
:104AF000EDE71A465B680BB1A342FAD9116850186A
:104B0000A0420BD120680144501883421160E0D1CB
:104B100018685B68536008441060DAE702D90C2318
:104B20002B60D6E7206821188B4204BF19685B68A8
:104B3000636004BF091821605460CAE738BD00BF34
:104B4000485A012070B50F4E0C463168054611B920
:104B500000F0B2FC30602146284600F0ADFC431C5A
:104B600003D14FF0FF34204670BDC41C24F0030471
:104B7000A042F8D0211A284600F09EFC0130F2D164
:104B8000EFE700BF445A01202DE9F843CD1C25F082
:104B9000030508350C2D38BF0C25002D064601DB1A
:104BA000A94204D90C2333600020BDE8F883DFF864
:104BB000D48000F069F8D8F800301C4644BB294680
:104BC0003046FFF7BFFF431C044658D1D8F80040D9
:104BD0002746002F43D1002C4BD02368394630465E
:104BE00004EB030900F068FC814542D121686D1A8D
:104BF00029463046FFF7A6FF01303AD023682B4400
:104C00002360D8F800305A6862BBC8F800700FE023
:104C10002268521B20D40B2A17D96119A3422560A0
:104C200018BF5960636808BFC8F8001062514B6034
:104C3000304600F02FF804F10B00231D20F0070090
:104C4000C21A1CBF1B1AA350AFE76268A3420CBF75
:104C5000C8F800205A60EBE723466468AEE73C469C
:104C60007F68B6E71A465B68A342FBD10023536016
:104C7000DEE70C233360304600F00CF894E7056063
:104C8000D6E700BF485A01200148FFF700BF00BF28
:104C9000405A01200148FFF7FBBE00BF405A0120E7
:104CA0009368013B002B10B4936008DA9469A34227
:104CB00001DB0A2903D15DF8044B00F06BBB1368DC
:104CC000581C1060197008465DF8044B7047F8B521
:104CD00006460F461446D518AC4201D1002007E025
:104CE00014F8011B3A463046FFF7DAFF431CF3D1B4
:104CF000F8BD00002DE9F04F0D469DB014469846D2
:104D0000064618B1036A0BB9FFF7C2FD6B6ED907EF
:104D100005D4AB899A0502D4A86DFFF7B8FEAB891C
:104D20001B0701D52B699BB92946304600F070FB63
:104D300070B16B6EDC0704D54FF0FF301DB0BDE8DD
:104D4000F08FAB899805F7D4A86DFFF7A1FEF3E7C4
:104D50000023099320238DF82930CDF80C803023CF
:104D6000DFF8AC818DF82A304FF0010923469A46CE
:104D700013F8012B0AB1252AF9D1BAEB040B0BD099
:104D80005B46224629463046FFF7A1FF013000F07E
:104D9000A780099A5A4409929AF80030002B00F033
:104DA0009F8000234FF0FF32CDE905230AF1010A6D
:104DB000049307938DF853301A935446052214F840
:104DC000011B534800F08CFB049AD8B9D10644BFAC
:104DD00020238DF85330130744BF2B238DF8533015
:104DE0009AF800302A2B15D0079A544600204FF02D
:104DF0000A0C214611F8013B303B092B4BD9B0B1CD
:104E0000079214E0A0EB080309FA03F31343049399
:104E1000A246D2E7039B191D1B680391002BBBBF61
:104E20005B4242F0020207930793B8BF04922378D3
:104E30002E2B0AD163782A2B32D1039B1A1D1B68B3
:104E4000039243EAE37302340593DFF8D4A0217898
:104E50000322504600F044FB38B1049BA0EB0A004B
:104E60004022824013430134049314F8011B294863
:104E70008DF82810062200F033FB00283FD0264B87
:104E80001BBB039B073323F0070308330393099BE2
:104E90003B4409936AE70CFB02320C460120A8E769
:104EA00000230134059319464FF00A0C204610F8F0
:104EB000012B303A092A03D9002BC6D00591C4E74B
:104EC0000CFB012104460123F0E703AB00932A46C3
:104ED000124B04A93046AFF300800746781CD6D1A8
:104EE0006B6ED90705D4AB899A0502D4A86DFFF77C
:104EF000CFFDAB895B063FF51FAF09981EE703ABFB
:104F000000932A46054B04A9304600F079F8E4E7FF
:104F1000306900003A69000000000000CF4C00003A
:104F2000366900002DE9F047164698468A680B69F5
:104F3000DDF820909342B8BF1346336091F84320C8
:104F400007460C460AB1013333602368990642BF15
:104F5000336802333360256815F0060506D104F185
:104F6000190AE36832689B1AAB4226DC94F8433096
:104F70002268003B18BF012392062BD404F14302A0
:104F800041463846C84701301ED02368226903F0E5
:104F90000603042B02BFE5683368ED1AA3680CBF53
:104FA00025EAE57500259342C4BF9B1AED1800263B
:104FB0001A34B5421AD1002008E001235246414676
:104FC0003846C847013003D14FF0FF30BDE8F087C5
:104FD0000135C6E7E1185A1C302081F8430022440D
:104FE00094F8451082F843100233C7E701232246A4
:104FF00041463846C8470130E6D00136D9E70000BF
:105000002DE9FF470F7E0C9E782F914680460C4677
:105010009A4601F1430207D8622F0AD8002F00F008
:10502000D280582F00F0B78004F1420684F8427015
:105030003AE0A7F16303152BF6D801A151F823F04C
:1050400099500000AD500000295000002950000088
:105050002950000029500000AD50000029500000E8
:10506000295000002950000029500000AD510000D7
:10507000D750000063510000295000002950000063
:10508000CF51000029500000D750000029500000E7
:10509000295000006B51000033681A1D1B683260F4
:1050A00004F1420684F8423001239DE03368206811
:1050B000191D3160060601D51D6803E04506FBD5C4
:1050C000B3F90050002D03DA2D236D4284F84330EC
:1050D00059480A2310E021683368080653F8045B36
:1050E00002D4490648BFADB26F2F5348336059D13F
:1050F0000823002184F843106668A660002E05DBB3
:1051000021682E4321F0040121604DD01646B5FBE5
:10511000F3F103FB1157C75D06F8017D2F46BB4233
:105120000D46F4D9082B0BD12368DF0708D5236976
:1051300061689942DEBF302306F8013C06F1FF3674
:10514000921B2261CDF800A04B4603AA214640469F
:10515000FFF7E8FE01304CD14FF0FF3004B0BDE85E
:10516000F087236843F0200323603448782784F8CD
:105170004570236831681F0651F8045B02D45F064E
:1051800048BFADB23160D90744BF43F0200323606C
:105190001DB11023ADE72848E9E7236823F0200379
:1051A0002360F6E70A23A4E71646BBE733682568C1
:1051B0006169181D30602E061B6801D5196002E078
:1051C0006806FBD51980002323611646BAE73368C9
:1051D0001A1D32601E6862680021304600F080F9B6
:1051E00008B1801B606063682361002384F843304A
:1051F000A8E72369324649464046D0470130ABD044
:1052000023689B0713D4E068039B9842B8BF1846F5
:10521000A4E70123324649464046D04701309BD09F
:105220000135E36803995B1AAB42F2DCEBE700253A
:1052300004F11906F5E700BF41690000526900005A
:10524000B1F90C202DE9F041160705460C4651D462
:105250004B68002B02DC0B6C002B49DDE66A002E4C
:1052600046D0002312F480522F682B6031D0626D3B
:10527000A389590705D56368D21A636B0BB1236CF8
:10528000D21A0023E66A216A2846B047421CB4F9C4
:105290000C3006D129681D2946D8294ACA40D607AC
:1052A00042D500226260D9042269226004D5421CE2
:1052B00001D12B6803B96065616B2F60C1B104F146
:1052C0004403994202D02846FFF7F2FB00236363B0
:1052D0000EE0216A01232846B0470246501CC7D180
:1052E0002B68002BC4D01D2B01D0162B1AD12F6098
:1052F00000201EE00F69002FFAD093070E6808BF48
:105300004B690F6018BF0023A6EB07088B60B8F14C
:10531000000FEDDD216AA66A43463A462846B047AB
:10532000002808DCB4F90C3043F04003A3814FF0AF
:10533000FF30BDE8F0810744A8EB0008E7E700BFB5
:105340000100402038B50B6905460C4613B900250D
:10535000284638BD18B1036A0BB9FFF799FAB4F9BA
:105360000C30002BF3D0626ED00704D4990502D420
:10537000A06DFFF78CFB28462146FFF761FF636EA7
:10538000DA070546E4D4A3899B05E1D4A06DFFF7B5
:105390007FFBDDE7F8B50E461446054618B1036AF3
:1053A0000BB9FFF775FAA369A360A3891A0701D5A2
:1053B000236943B92146284600F02AF818B14FF076
:1053C000FF373846F8BD23682269981A6369F6B238
:1053D0008342374605DC21462846FFF7B3FF002805
:1053E000EDD1A368013BA36023685A1C22601E70A4
:1053F0006269431C9A4204D0A389DB07E1D50A2ED7
:10540000DFD121462846FFF79DFF0028D9D0D6E7F7
:1054100038B5284B054618680C4618B1036A0BB915
:10542000FFF736FAB4F90C301A0721D4D80607D49E
:1054300009222A6043F04003A3814FF0FF3030E09F
:10544000590712D5616B41B104F14403994202D06E
:105450002846FFF72DFB002363630022B4F90C30CC
:1054600062602269226023F0240343F00803A381D1
:1054700022693AB99A0501D5180603D5214628466E
:1054800000F0A2F8B4F90C3013F001020AD00022A7
:10549000A26062695242A261226942B913F080009F
:1054A000C8D138BD990758BF6269A260F4E70020EF
:1054B000F7E700BF7480002038B5064D002304468E
:1054C00008462B6000F0FCF8431C02D12B6803B1A6
:1054D000236038BD3C5A012000000000000000009D
:1054E00001F0FF01102A2BDB10F0070F08D010F895
:1054F000013B013A8B422DD010F0070F42B3F6D199
:10550000F0B441EA012141EA014122F007047FF0B1
:1055100000070023F0E80256083C85EA010586EA08
:10552000010685FA47F5A3FA87F586FA47F6A5FA44
:1055300087F68EB9EED1F0BC01F0FF0102F0070250
:1055400032B110F8013B013A83EA010313B1F8D1FB
:105550000020704701387047002D06BF35460338DC
:10556000073815F0010F07D1013015F4807F02BF15
:10557000013015F4C03F0130F0BC0138704700BF66
:1055800070B50C46B1F90E10002996B015461E46AE
:105590000ADAA18911F0800113D14FF48062002052
:1055A00031602A6016B070BD6A4600F047F80028E6
:1055B000EFDB019901F47041A1F5005359425941C3
:1055C000EBE700214022EAE78B8973B59E07054689
:1055D0000C4607D504F1470323602361012363616F
:1055E00002B070BD01AB6A46FFF7CAFF009E2846B5
:1055F0003146FFF7C9FAB4F90C3038B99A05EFD43F
:1056000023F0030343F00203A381E3E743F08003A5
:10561000A381019B2060C4E90406002BE0D0B4F90B
:105620000E10284600F01CF80028D9D0A38923F0DA
:10563000030343F00103A381D2E7000038B5074D0F
:1056400000230446084611462B6000F021F8431C55
:1056500002D12B6803B1236038BD00BF3C5A012042
:1056600038B5064D0023044608462B6000F018F8B4
:10567000431C02D12B6803B1236038BD3C5A012082
:10568000024B58221A604FF0FF3070473C5A0120FD
:10569000024B58221A604FF0FF3070473C5A0120ED
:1056A000024B58221A600020704700BF3C5A01206C
:1056B000024B58221A604FF0FF3070473C5A0120CD
:1056C000044A05491368002B08BF0B4618441060B4
:1056D000184670474C5A0120505A0120FEE700BF7F
:1056E00081F0004102E000BF83F0004330B54FEA93
:1056F00041044FEA430594EA050F08BF90EA020F00
:105700001FBF54EA000C55EA020C7FEA645C7FEA92
:10571000655C00F0E2804FEA5454D4EB5555B8BFB5
:105720006D420CDD2C4480EA020281EA030382EA26
:10573000000083EA010180EA020281EA0303362DB8
:1057400088BF30BD11F0004F4FEA01314FF4801C8B
:105750004CEA113102D0404261EB410113F0004F9D
:105760004FEA03334CEA133302D0524263EB430354
:1057700094EA050F00F0A780A4F10104D5F1200EF2
:105780000DDB02FA0EFC22FA05F2801841F100014D
:1057900003FA0EF2801843FA05F359410EE0A5F121
:1057A00020050EF1200E012A03FA0EFC28BF4CF052
:1057B000020C43FA05F3C01851EBE37101F0004508
:1057C00007D54FF0000EDCF1000C7EEB00006EEB15
:1057D0000101B1F5801F1BD3B1F5001F0CD349089F
:1057E0005FEA30004FEA3C0C04F101044FEA4452F6
:1057F00012F5800F80F09A80BCF1004F08BF5FEA7D
:10580000500C50F1000041EB045141EA050130BD5C
:105810005FEA4C0C404141EB0101013C28BFB1F56E
:10582000801FE9D291F0000F04BF01460020B1FAB9
:1058300081F308BF2033A3F10B03B3F120020CDA8C
:105840000C3208DD02F1140CC2F10C0201FA0CF06A
:1058500021FA02F10CE002F11402D8BFC2F1200CCF
:1058600001FA02F120FA0CFCDCBF41EA0C01904085
:10587000E41AA2BF01EB0451294330BD6FEA0404CE
:105880001F3C1CDA0C340EDC04F11404C4F12002B9
:1058900020FA04F001FA02F340EA030021FA04F3CB
:1058A00045EA030130BDC4F10C04C4F1200220FA22
:1058B00002F001FA04F340EA0300294630BD21FA60
:1058C00004F0294630BD94F0000F83F4801306BF26
:1058D00081F480110134013D4EE77FEA645C18BF1A
:1058E0007FEA655C29D094EA050F08BF90EA020FB1
:1058F00005D054EA000C04BF1946104630BD91EAA9
:10590000030F1EBF0021002030BD5FEA545C05D1AB
:105910004000494128BF41F0004130BD14F58004EA
:105920003CBF01F5801130BD01F0004545F0FE415E
:1059300041F470014FF0000030BD7FEA645C1ABF93
:10594000194610467FEA655C1CBF0B46024650EACA
:10595000013406BF52EA033591EA030F41F40021F6
:1059600030BD00BF90F0000F04BF0021704730B57C
:105970004FF4806404F132044FF000054FF0000151
:1059800050E700BF90F0000F04BF0021704730B512
:105990004FF4806404F1320410F0004548BF4042E7
:1059A0004FF000013EE700BF42004FEAE2014FEA3C
:1059B00031014FEA02701FBF12F07F4393F07F4F17
:1059C00081F06051704732F07F4208BF704793F01A
:1059D0007F4F04BF41F40021704730B54FF460742D
:1059E00001F0004521F000411CE700BF50EA010230
:1059F00008BF704730B54FF000050AE050EA0102D9
:105A000008BF704730B511F0004502D5404261EB48
:105A100041014FF4806404F132045FEA915C3FF489
:105A2000D8AE4FF003025FEADC0C18BF03325FEA26
:105A3000DC0C18BF033202EBDC02C2F1200300FAD7
:105A400003FC20FA02F001FA03FE40EA0E0021FAFC
:105A500002F11444BDE600BFF8B500BFF8BC08BCB5
:105A60009E467047F8B500BFF8BC08BC9E4670471C
:105A70005FF800F0194500205FF800F0C1430020F6
:105A80005FF800F0654500205FF800F059480020FD
:105A90005FF800F0014000204261636B656E647343
:105AA00020666C75736865640000000061707000AA
:105AB000466174616C206572726F72005379737401
:105AC000656D2072657365740000000050525300CC
:105AD0005541525400000000554152544500000009
