:100000000000042009030000310300003303000056
:100010008171000037030000390300000000000078
:100020000000000000000000000000004D6B000018
:100030003D03000000000000716B00004103000060
:10004000C949000043030000C91900004303000030
:100050004303000043030000254E0000430300005B
:100060004303000043030000430300004303000078
:100070004303000043030000430300004303000068
:1000800043030000856E00004303000043030000AB
:100090004303000043030000430300004303000048
:1000A0004303000043030000430300004303000038
:1000B00043030000430300000000000000000000B4
:1000C0004303000043030000430300004303000018
:1000D000430300004303000043030000000000004E
:1000E0000000000000000000000000000000000010
:1000F0000000000000000000000000000000000000
:1001000000000000000000000000000000000000EF
:1001100000000000000000000000000000000000DF
:1001200000000000000000000000000000000000CF
:1001300000000000000000000000000000000000BF
:1001400000000000000000000000000000000000AF
:10015000000000000000000000000000000000009F
:10016000000000000000000000000000000000008F
:10017000000000000000000000000000000000007F
:10018000000000000000000000000000000000006F
:10019000000000000000000000000000000000005F
:1001A000000000000000000000000000000000004F
:1001B000000000000000000000000000000000003F
:1001C000000000000000000000000000000000002F
:1001D000000000000000000000000000000000001F
:1001E000000000000000000000000000000000000F
:1001F00000000000000000000000000000000000FF
:100200000348044B834202D0034B03B118477047A5
:10021000F0400020F0400020000000000548064BA0
:100220001B1AD90F01EBA301491002D0034B03B1F4
:1002300018477047F0400020F04000200000000008
:1002400010B5064C237843B9FFF7DAFF044B13B11E
:100250000448AFF300800123237010BDF04000205C
:10026000000000006491000008B5054B1BB1054972
:100270000548AFF30080BDE80840FFF7CFBF00BFDF
:1002800000000000F440002064910000A3F5803AD3
:10029000704700BF174B002B08BF134B9D46FFF75D
:1002A000F5FF00218B460F461348144A121A07F037
:1002B0009DF80E4B002B00D098470D4B002B00D023
:1002C00098470020002104000D000D48002802D0AE
:1002D0000C48AFF3008007F0D7F82000290003F0A6
:1002E0005BFD06F057FF00BF0000080000000000A3
:1002F0000000000000000420F04000201CCA002084
:1003000000000000000000000649074A074B9B1A46
:1003100003DD043BC858D050FBDC04F015F8FFF7B0
:10032000B9FF0000BC91000000400020F040002018
:10033000FEE7FEE7FEE7FEE7FEE7FEE7FEE7FEE795
:10034000FEE7FEE782B04FF0FF33019300BF02B03B
:10035000704700B583B001900091019B1B681B683A
:1003600000990198984700BF03B05DF804FB00B501
:1003700083B00190019B1B685B680198984700BFA0
:1003800003B05DF804FB00B583B00190019B1B68CE
:100390009B680198984700BF03B05DF804FB82B0EA
:1003A0000190019BDB6801225A7100BF02B07047C7
:1003B00082B00190019BDB685B79184602B0704700
:1003C00000B585B0019000910C4B00221A700C48CA
:1003D00001F0A7F80390039B002B01D0039B08E0DA
:1003E000084801F0F8F9084A084BD31ADB080293D1
:1003F0000023184605B05DF804FB00BFF44500205B
:10040000A0910000D0840000A0910000689100003D
:1004100084B00190009100238DF80F30019B1B7870
:1004200003F00403DBB2002B24D0019B1B78C3F341
:100430000103DBB2012B02D0022B0CD017E0009B92
:100440001B68019A1288C2F38312D2B213449A1C19
:10045000009B1A600BE0009B1B68019A5288C2F354
:10046000891292B213449A1C009B1A6000BF0123A8
:100470008DF80F309DF80F30184604B0704700001B
:1004800000B58BB00023ADF826303B4800F095FF57
:100490003A4800F092FF3A4B9B680493394B1B6833
:1004A0000693049A069B134002339B00344A13447C
:1004B0000433089304AB19460898FFF7A9FF0346D5
:1004C000002B09D0049A069B134002339B002C4A50
:1004D000134404330893EDE700BF0023079311E0B2
:1004E000049B5A1C0492069A1340079A920001A991
:1004F0000A44234902339B000B445B681360079B4B
:1005000001330793079B012BEAD99DF80430C3F30D
:100510000103DBB2012B10D0022B1CD1BDF80A3035
:10052000ADF82630BDF80630C3F389139BB2033310
:100530009A08049B134404930EE0BDF80A30ADF80A
:100540002630BDF80430C3F38313DBB21A46049B94
:100550001344049300E000BF084800F03AFF059000
:10056000059B002B02D0049B054A9360BDF8263002
:1005700018460BB05DF804FB0C66002008660020EE
:10058000F44500200040002000B585B00021074858
:1005900000F09CFE0390039B0293029B83F31003E5
:1005A0000193019B184605B05DF804FB106600201E
:1005B00000B589B00390029101920093039B1B0C3C
:1005C0000693FFF7E1FF0790079B1904009B5A1C55
:1005D0000A9B1340069A0A431B4902339B000B44B3
:1005E0005A60009A0A9B134002339B00164A134438
:1005F00004330593039B03F00703D9B2059A1378DC
:1006000061F3C5031370019B03F00F03D9B2059A80
:10061000138861F389131380029BC3F31501059AB4
:10062000136861F39F231360059A1378012161F326
:1006300001031370059A137823F00403137000BFAD
:1006400009B05DF804FB00BFF445002000BF70470F
:1006500000B58BB00390029113468DF80730039BD1
:100660000233089301238DF81F30002000F01AFE9A
:100670003E4B5A68029B1A603D4B1A683B4B996887
:100680003A4B5B68CB1A13440133099314E0012100
:10069000384800F062FEFFF7F3FE059005993548F3
:1006A00000F05BFE324B1A68304B99682F4B5B6849
:1006B000CB1A134401330993089A099B9A42E6D84E
:1006C0009DF81F30002B48D0002304939DF807307D
:1006D000002B17D09DF81030012262F301038DF832
:1006E00010309DF8103043F004038DF81030039B58
:1006F00003F00F03DAB2BDF8103062F38913ADF8DE
:10070000103016E09DF81030022262F301038DF8DC
:1007100010309DF8103043F004038DF81030039B27
:10072000C3F309039AB2BDF8123062F38F13ADF828
:1007300012300E4B5A680E4B1B68134002339B005D
:100740000A4A134404330693049A069B1A60074B23
:100750005A68089B1344054A5360002000F0ABFD23
:100760009DF81F3018460BB05DF804FBF4450020DF
:10077000004000201066002000B58BB00590049169
:10078000039202931F4B1B68079306AB0122194685
:100790000298FFF75DFF0346002B24D0069B02332F
:1007A00009930023089311E0089B9B00039A1A44C5
:1007B000099B591C099107990B4012681249023391
:1007C0009B000B445A60089B01330893089A029BD4
:1007D0009A42E9D3069A079B00931346029A04991A
:1007E0000598FFF7E5FE084B1B78002B04D000F0BE
:1007F00029F80346002BFAD1FFF728FF00BF0BB002
:100800005DF804FB00400020F445002000B583B0F3
:10081000019000910023002200990198FFF7ACFF9E
:1008200000BF03B05DF804FB054B9A68044B5B689E
:100830009A420CBF01230023DBB21846704700BF69
:10084000F445002000B599B0FFF7EEFF0346002BFA
:1008500001D00023BFE19C4B03F500531A4600234F
:100860009361BFF34F8F00BF974B9B680493974BE7
:100870001B681093049A109B134002339B00924A0A
:10088000134404331193002317930023169300237A
:100890000F9304AB19461198FFF7BAFD0346002BDE
:1008A0001AD0894B03F500539B69002B14D1864B5A
:1008B0005A68049B9A4205D8834B5B68824A9360CE
:1008C000002388E1049A109B134002339B007E4A68
:1008D000134404331193DCE70023159311E0049BC8
:1008E0005A1C0492109A1340159A920001A90A44C6
:1008F000754902339B000B445B681360159B013301
:100900001593159B012BEAD99DF8043003F00303DE
:10091000DBB2022B40F09C80BDF80630C3F3891394
:100920009BB20D93BDF80630C3F389139BB2502BD5
:1009300028BF50239BB20C930C9BC3F309039AB2BC
:10094000BDF8063062F38F13ADF806300C9B083308
:100950000B939DF80430C3F3C203DBB20F930B99E2
:100960005B4800F0E9FD1790179B002B00F0D28048
:10097000179800F072FE01A9169B0822179800F044
:1009800016FF169B08331693049BDA43109B134003
:1009900001339B000A930C9A0A9B9A4242D90A9B04
:1009A000002B08D0049A109B134002339B00464A48
:1009B0001344043300E0474B08930A9B002B02D0FA
:1009C0000A9BDBB201E00C9BDBB28DF81F300A9B67
:1009D000002B01D03F4B00E0002306930A9B002B25
:1009E00006D00C9BDAB20A9BDBB2D31ADBB200E072
:1009F00000238DF817309DF81F20169B0899179833
:100A000000F0D5FE9DF81F30169A13441693069BEE
:100A1000002B16D09DF81720169B0699179800F00A
:100A2000C6FE0EE0049A109B134002339B00264A38
:100A3000134404330993169B0C9A0999179800F0F4
:100A4000B6FE0D9B03339A08049B1344049361E0A4
:100A50009DF8043003F00303DBB2012B5AD1BDF83B
:100A60000430C3F38313DBB2062B28BF0623DAB2AC
:100A7000BDF8043062F38913ADF80430BDF80430DA
:100A8000C3F38313DBB202330E939DF80430C3F338
:100A9000C203DBB20F930E9B9B0019460C4800F07B
:100AA0004BFD1790179B002B34D0179800F0D5FD05
:100AB00001A9169B0822179800F079FE169B0833AF
:100AC0001693002315931CE0F445002000400020FD
:100AD000A091000000460020049B5A1C0492109A2A
:100AE000134002339B003E4A1344191D169B0422F7
:100AF000179800F05CFE169B04331693159B013388
:100B00001593BDF80430C3F38313DBB21A46159B6B
:100B10009342E1D3179B002B3CD0314B03F500539C
:100B20001B6914932E4B03F500539B69002B1BD0BC
:100B3000179800F0A1FD48E000238DF84F3014987D
:100B4000FFF736FC0346002B02D001238DF84F300F
:100B50009DF84F30002B03D017991498FFF7F9FB3D
:100B6000149BDB681B681493149B002BE4D117982B
:100B700000F082FD002000F095FB194B03F50053B7
:100B80009B69002B02D1049B154A9360002000F062
:100B900092FB1AE0124B03F500531B69129306E017
:100BA0001298FFF7F0FB129BDB681B681293129BF5
:100BB000002BF5D10B4A0C4BD31ADB081B0443F076
:100BC00002030A491846FFF721FEFFF72DFE0346F0
:100BD00083F00103DBB2184619B05DF804FB00BFD7
:100BE000F44500209091000068910000E08400002E
:100BF00000B583B00D4B03F500531B6901930B4BFC
:100C000001221A7009E00198FFF7C9FB0198FFF76C
:100C1000AEFB019BDB681B680193019B002BF2D1AB
:100C200000BF00BF03B05DF804FB00BFF445002027
:100C300000B587B001900023039300230493019B28
:100C4000059303AB1A46002144F2010000F018F8A6
:100C500000BF07B05DF804FBBFF34F8F00BF064B2A
:100C6000DB6803F4E0620449044B1343CB60BFF339
:100C70004F8F00BF00BFFDE700ED00E00400FA0564
:100C800000B585B003900291019272B600BFFFF7E4
:100C9000AFFFFFF7D7FD0346002BFAD10F4A104BE9
:100CA000D31ADB081B0443F001030E491846FFF773
:100CB000ADFD0D4B1B6803F00103002B00D000BEFF
:100CC000064A074BD31ADB081B0443F0020307490B
:100CD0001846FFF79BFDFFF7BFFF00BF9091000094
:100CE00068910000F4840000F0ED00E00085000051
:100CF00084B00190019B9B680393019BDA68039B7E
:100D0000D31A184604B0704782B001900B468DF894
:100D10000330019B1A68019BDB68019989880B40AD
:100D200013449DF803201A70019BDB685A1C019B39
:100D3000DA6000BF02B0704784B003900B460192A6
:100D4000ADF80A30039B1A68039B9968BDF80A3016
:100D50000B44039989880B4013441A78019B1A703D
:100D600000BF04B0704700B583B001900091009AB5
:100D700000210198FFF7E0FF019B9B685A1C019B33
:100D80009A6000BF03B05DF804FB84B00390029149
:100D90001346ADF80630029B002B01D10E231DE057
:100DA000BDF80630002B07D0BDF806305A1EBDF83E
:100DB00006301340002B01D009230FE0039B029A59
:100DC0001A60BDF80630013B9AB2039B9A80039BE0
:100DD00000229A60039B0022DA600023184604B0C8
:100DE000704700B583B001900B468DF80330019831
:100DF000FFF77EFF0246019B9B889A4207D89DF829
:100E0000033019460198FFF77FFF002300E0042319
:100E1000184603B05DF804FB00B583B00190009163
:100E20000198FFF765FF0346002B05D00099019854
:100E3000FFF799FF002300E00523184603B05DF893
:100E400004FB000000B587B00390029113468DF8B3
:100E5000073000230593039B1B781A46114B9B5CBC
:100E6000002B09D0039B04339DF8072002991846F4
:100E700001F0C8FE05900FE0039B1B781A46094B52
:100E80009B5C002B08D1039B0C339DF80720029933
:100E9000184601F0E1F80590059B184607B05DF88B
:100EA00004FB00BF5466002000B585B0019000230C
:100EB0008DF80F30019B1B781A46114B9B5C002B61
:100EC00008D0019B0433184601F032FF03468DF829
:100ED0000F300EE0019B1B781A46094B9B5C002BE0
:100EE00007D1019B0C33184601F022F903468DF817
:100EF0000F309DF80F30184605B05DF804FB00BFB9
:100F00005466002000B587B00390029113468DF817
:100F1000073000230593039B1B781A46114B9B5CFB
:100F2000002B09D0039B04339DF807200299184633
:100F300001F016FF05900FE0039B1B781A46094B42
:100F40009B5C002B08D1039B0C339DF80720029972
:100F5000184601F045F90590059B184607B05DF865
:100F600004FB00BF5466002084B00190019B9B6885
:100F70000393019BDA68039BD31A184604B07047A9
:100F800000B587B001900091019B1B78022B45D0E2
:100F9000022B6ADC002B52D0012B66D1019B1B7AFD
:100FA000002B05D1012233493348FFF7ABFF5DE049
:100FB000019B5B681B7819463048FFF712FF0590CC
:100FC000059B002B0AD001238DF80C30059B049360
:100FD0002B4B1B6803AA104698470DE02748FFF7E4
:100FE000C3FF0346002B07D000238DF80C30244BA1
:100FF0001B6803AA104698472048FFF7B5FF034631
:101000001E4A9288934205D801221A491A48FFF7CE
:1010100079FF2BE01B4B01221A7027E002238DF889
:101020000C30019BDB680493012212491248FFF740
:1010300069FF134B1B6803AA1046984716E0124934
:101040001248FFF7E9FE0346002B05D101220E49A5
:101050000948FFF7F7FE09E003238DF80C30084B31
:101060001B6803AA1046984700E000BF00BF07B006
:101070005DF804FB1C660020044000202066002070
:10108000146600201D6600201866002030660020CF
:1010900030B591B00390029101928DF803303C4A33
:1010A000019B1360029B002B01D107236DE0029B83
:1010B0001968029B5B689BB21A463648FFF765FECB
:1010C0000F900F9B0E930E9B002B01D00E9B5CE0AC
:1010D000029B9968029BDB689BB21A462E48FFF779
:1010E00054FE0F900F9B0D930D9B002B01D00D9B79
:1010F0004BE02A4B04AC1D460FCD0FC495E80F0002
:1011000084E80F00039B5B690A93039B1B7C002B05
:1011100014BF01230023DBB28DF824309DF8033087
:101120008DF82C30039B5B7C002B01D00E2300E05C
:1011300000238DF82530039BDB680693039B9B6897
:101140000793039B1B680593039B5B68049304ABA5
:10115000134A1946134800F0D7FB0F900F9B0C93CE
:101160000C9B002B01D00C9B0FE00F4B00221A7040
:10117000039B1B68B3F1FF3F06D001220B490948CE
:10118000FFF7C0FE034600E00023184611B030BD53
:1011900014660020206600203066002010850000C4
:1011A000810F0000044000201D6600201C66002006
:1011B00000B587B00190114B1B788DF8173001995D
:1011C0000F48FFF729FE04909DF81730002B10D030
:1011D0000A4B00221A7001220A490B48FFF792FEBF
:1011E0000390039B0293029B002B02D00298FFF70F
:1011F0001FFD049B184607B05DF804FB1D66002028
:10120000206600201C6600200440002000B585B048
:1012100003468DF807309DF8073019461048FFF750
:10122000E0FD0390039B002B15D10E48FFF73CFE19
:10123000034683F00103DBB2002B0CD00A490848B7
:10124000FFF7EAFD0346002B05D1012206490548B8
:10125000FFF7F8FD0390039B184605B05DF804FB0B
:1012600030660020044000201866002072B600BFDF
:10127000034B1B680133024A136000BF704700BF75
:1012800040660020064B1B68013B054A1360044B77
:101290001B68002B01D162B600BF00BF704700BFC2
:1012A0004066002000B583B00190FFF7DFFF00BF6C
:1012B00003B05DF804FB00B583B003468DF807303A
:1012C000FFF7E0FF00BF03B05DF804FB10B487B088
:1012D00001900091019B009A53E8004F104643E8AB
:1012E000000191F0000FF7D1059404900391059B44
:1012F000184607B05DF8044B704710B487B00190F2
:101300000091019B009A53E8004F44EA020043E831
:10131000000191F0000FF6D1059404900391049B15
:10132000184607B05DF8044B704710B487B00190C1
:101330000091019B009A53E8004F04EA020043E841
:10134000000191F0000FF6D1059404900391059BE4
:10135000184607B05DF8044B704710B487B0019091
:101360000091019B009A53E8004F04EB020043E810
:10137000000191F0000FF6D1059404900391049BB5
:10138000184607B05DF8044B704710B487B0019061
:101390000091019B009A53E8004FA4EB020043E840
:1013A000000191F0000FF6D1059404900391049B85
:1013B000184607B05DF8044B704700B583B0019044
:1013C00001210198FFF799FF0346184603B05DF825
:1013D00004FB00B583B0019000210198FFF7A5FF41
:1013E0000346184603B05DF804FB82B001900B463B
:1013F0008DF80330019BDA689DF803300199098A62
:1014000001FB03F31344184602B0704782B0019009
:101410000091009B019AD2689B1A019A128AB3FB31
:10142000F2F3DBB2184602B0704784B00190019B22
:10143000002B01D10E2320E0019B9A68019B5B6881
:10144000D31A8DF80F30019B1B68019A52681A60FD
:1014500007E0019B1A681368591C11609DF80F2062
:101460001A709DF80F305A1E8DF80F20002BF0D106
:10147000019B1B6800221A710023184604B07047B4
:1014800000B585B00190002303930020FFF70AFF09
:10149000019B1B681A68019B5B689A421FD9019BDC
:1014A0001B681A68013A1A601B681B781946019874
:1014B000FFF79BFF0390019B9A68019B1B681B68C9
:1014C000D31A8DF80B30019B1B681B799DF80B20FC
:1014D0009A4204D9019B1B689DF80B201A710020C9
:1014E000FFF7E9FE039B184605B05DF804FB10B555
:1014F00084B001900091009B03930020FFF7D2FE7F
:10150000019B1B681C68621C1A6003990198FFF715
:101510007DFF034623700020FFF7CDFE00BF04B01F
:1015200010BD00B583B001900198FFF77EFF034620
:10153000184603B05DF804FB00B58BB00190009134
:10154000019B1B8A043B0793009A079B1344DA1CF8
:10155000079BB2FBF3F38DF81B300198FFF790FF68
:101560000590059B002B01D1002338E0059B00224C
:101570001A71059B01225A71079B9AB2059BDA806A
:10158000059B09939DF81B30013B0493099B019A2D
:101590001A60002308931DE00198FFF771FF039084
:1015A000039B002B0ED0059B5B790133DAB2059BC0
:1015B0005A71099B039A1A60039B019A1A60039B54
:1015C000099304E0059800F00EF8002307E0089B5B
:1015D00001330893089A049B9A42DDD3059B184671
:1015E0000BB05DF804FB00B58BB00190019B079335
:1015F000079B5B798DF81B30019B08939DF81B308E
:10160000013B05930023099305E0089B1B680893A1
:10161000099B01330993099A059B9A42F5D3089BCC
:101620001B680493019B0893002309930BE0089B1C
:101630001B68039308990498FFF759FF039B0893CD
:10164000099B013309939DF81B30099A9A42EED306
:1016500000BF00BF0BB05DF804FB00B585B0019082
:10166000019B0393039B043301211846FFF775FE8A
:1016700000BF05B05DF804FB00B587B00190019B89
:101680000593059B043301211846FFF77EFE0346B0
:10169000039303AB0493049B1B78002B02D10198A6
:1016A000FFF7A1FF00BF07B05DF804FB00B591B0E4
:1016B0000390029101920093039B0993039B0F9364
:1016C000099BDB881A46099B5B7902FB03F3043B09
:1016D0000893099BDB880793009B1A1D079BB2FBAD
:1016E000F3F30E93009B0433079AB3FBF2F20799CE
:1016F00001FB02F29B1A0D93019B1A68009B134495
:10170000089A9A4203D2089A009BD31A01E0019BDF
:101710001B680C93019B0C9A1A6005E00F9B1B68D9
:101720000F930E9B013B0E930E9B002BF6D10023D3
:101730000B93079A0D9BD31A0A930A9A0C9B934218
:1017400028BF13460A932AE0029A0B9B1344069380
:101750000F9A0D9B1344043305939DF84830002BDA
:1017600005D00A9A0599069805F0B5FE04E00A9A94
:101770000699059805F0AFFE00230D930F9B1B689B
:101780000F930C9A0A9BD31A0C930B9A0A9B13443F
:101790000B93079A0C9B934228BF13460A930C9B0A
:1017A000002BD1D100BF00BF11B05DF804FB00B524
:1017B00089B00590049103920293039B079307AAB3
:1017C00000230093029B04990598FFF76FFF00BF69
:1017D00009B05DF804FB82B00190019B9B68002278
:1017E0009A60019B9B6800221A61019B9B68002202
:1017F0005A61019B9B680022DA60019B9B68002272
:101800005A60019B9B6800221A6000BF02B07047BB
:1018100000B587B00390029101920023059309E07F
:10182000029B5A1C02921B781846FFF7EFFC059B9F
:1018300001330593059A019B9A42F1DB019B1846FF
:1018400007B05DF804FB00B585B0039002910192EA
:1018500000BF0298FFF7ACFC0346052BF9D001232B
:10186000184605B05DF804FB00B589B00190009101
:10187000009B0793019B1B788DF80C30019B5B68E4
:101880000493019B9B68DBB28DF81430019BDB68ED
:101890000693074A079B52F823300649079A51F8E6
:1018A000221003AA1046984700BF09B05DF804FB58
:1018B000446600204C66002000B589B0019000917C
:1018C000009B0793019B1B788DF80C30019B5B6894
:1018D0000493019B9B68DBB28DF81430019BDB689D
:1018E0000693074A079B52F823300649079A51F896
:1018F000221003AA1046984700BF09B05DF804FB08
:10190000446600204C66002030B58FB003900291F1
:101910000192039B1B780C9326490C9B019A41F87A
:101920002320029B1A6924490C9B41F82320029B27
:101930005B7F1946214A0C9B13440A461A70029B8E
:1019400004AC1D460FCD0FC495E80F0084E80F00CE
:101950000C9B089300230D93039B1B781A46174B8F
:101960009B5C002B0DD0039B181D019B002B01D00D
:10197000134A00E0002204AB194601F0E5F80D908F
:1019800014E0039B1B781A460C4B9B5C002B0DD17B
:10199000039B03F10C00019B002B01D0094A00E0DE
:1019A000002204AB194600F0ADFA0D900D9B1846CD
:1019B0000FB030BD446600204C6600205466002005
:1019C00069180000B918000008B5024B1B68984759
:1019D00008BD00BF5866002082B00190019B044AF8
:1019E000934201D1034B00E00023184602B0704738
:1019F000002000405866002000B587B0019000919B
:101A00000198FFF7E9FF0390039B002B1ED00023F2
:101A10008DF817300020FFF745FC039B1B79002B46
:101A200003D001238DF8173005E0039B009A1A605C
:101A3000039B01221A710020FFF73DFC9DF817302F
:101A4000002B03D011230493049B02E00023049392
:101A5000049B184607B05DF804FB000082B0034603
:101A60008DF807309DF90730002B0CDB9DF807300F
:101A700003F01F0205499DF907305B09012000FAB8
:101A800002F241F8232000BF02B0704700E100E0FD
:101A900082B0034600918DF807309DF90730002B86
:101AA0000ADB009BDAB20C499DF907305201D2B231
:101AB0000B4483F800230BE0009BDAB207499DF842
:101AC000073003F00F03043B5201D2B20B441A76E5
:101AD00000BF02B0704700BF00E100E000ED00E091
:101AE00082B00190019B1B0B5BB2184602B070479D
:101AF00000B583B003460A468DF8073013468DF8CB
:101B000006309DF806209DF9073011461846FFF76C
:101B1000BFFF00BF03B05DF804FB00B583B0034610
:101B20008DF807309DF907301846FFF797FF00BF83
:101B300003B05DF804FB84B001900B46ADF80230B1
:101B4000BDF80230019A134400221A60BDF8023039
:101B5000019A13441B680393039B00BF04B07047B2
:101B600082B001900B46ADF80230BDF80230019A08
:101B700013441B68002B14BF01230023DBB218465B
:101B800002B0704782B001900091019B009AC3F8A7
:101B9000042300BF02B0704782B001900091019B06
:101BA000D3F80423009B1340002B14BF0123002310
:101BB000DBB2184602B0704782B001900091019BE1
:101BC000009AC3F8082300BF02B0704784B00190A8
:101BD000019BD3F880340393019B039AC3F88024BC
:101BE000039B184604B0704782B00190019B042209
:101BF000C3F8002500BF02B0704784B00390029183
:101C00000192039B019AC3F81425039B029AC3F81F
:101C10000C2500BF04B0704784B00390029101927C
:101C2000039B029AC3F80825039B019AC3F8102569
:101C300000BF04B0704782B00190019BD3F8183503
:101C4000DBB2184602B0704782B001900B468DF8A7
:101C500003309DF80320019BC3F81C2500BF02B090
:101C6000704782B001900B468DF803309DF8033029
:101C7000019A134401221A6000BF02B0704782B07B
:101C800001900B468DF8033013468DF802309DF815
:101C900003209DF802301343DBB21A46019BC3F8C0
:101CA0006C2500BF02B0704782B001900091019B8B
:101CB000009AC3F8242500BF02B0704782B001909B
:101CC000019B1B681F2B02D84FF0A04306E0019B2D
:101CD0001B6803F01F02019B1A60024B184602B0FA
:101CE000704700BF0003005000B585B00190084662
:101CF00011461A4603468DF803300B468DF8023024
:101D000013468DF8013001AB1846FFF7D7FF03905B
:101D10009DF803209DF802305B001A439DF80130C6
:101D20009B001A439DF818301B0242EA03019DF8FC
:101D30001C301B04019A1943039B02F5E07243F81F
:101D4000221000BF05B05DF804FB00B585B003901C
:101D50000023019300230093002301220121039813
:101D6000FFF7C2FF00BF05B05DF804FB00B585B00A
:101D700003900B468DF80B309DF80B30002201923A
:101D800000220092002200210398FFF7ADFF00BF60
:101D900005B05DF804FB00B585B0019001AB1846B5
:101DA000FFF78CFF0390019B012202FA03F319460F
:101DB000039800F004F800BF05B05DF804FB82B0A2
:101DC00001900091019B009AC3F8082500BF02B062
:101DD000704700B583B001900091009B1B68B3F180
:101DE000FF3F09D0009B1B681846FFF7D4FF009BFC
:101DF0001B681846FFF7A9FF009B5B68B3F1FF3F24
:101E000005D0009B5B6800211846FFF7AFFF019BE0
:101E10001A68009B9B6919461046FFF745FF019B16
:101E20001868009B597D009B1B7D1A46FFF727FF12
:101E3000019B1868009B1968009B5B681A46FFF7B6
:101E4000DCFE009B1B7D012B22D1009B9B68B3F124
:101E5000FF3F05D0009B9B6800211846FFF786FFD7
:101E6000009BDB68B3F1FF3F09D0009BDB6818469D
:101E7000FFF791FF009BDB681846FFF766FF019BA9
:101E80001868009BD968009B9B681A46FFF7C4FE40
:101E900000BF03B05DF804FB00B583B001900B46B2
:101EA0008DF80330019B1B684FF48E711846FFF7C5
:101EB00042FE019B1B684FF4A2711846FFF73BFEE0
:101EC000019B1B680E491846FFF75CFE019B1B68CF
:101ED0001846FFF705FE03461A469DF803301946DB
:101EE0001046FFF705FE019B1B681846FFF7F8FD3B
:101EF00003461846FFF711FE00BF03B05DF804FB70
:101F00008000020000B587B0039002910192039B0C
:101F10001B791A462C2302FB03F3284A134404932B
:101F200000230593049B93F82A30002B03D0082349
:101F30000593059B3EE0039B1A68039B1B7919469A
:101F40001F4B53F8213019461046FFF755FD034645
:101F5000002B03D011230593059B2BE002990398D6
:101F6000FFF737FF049B019A5A60029B1A69049B92
:101F70001A60049B5B68002B05D0029B1B7F1946EF
:101F80000398FFF789FF039B1B681846FFF72CFE99
:101F9000049B00229A61049B0022DA61049B0022C8
:101FA00083F82920049B00225A61049B012283F8B4
:101FB0002A20059B184607B05DF804FB60660020E8
:101FC0003C85000000B585B0019000914FF48E7102
:101FD0000198FFF7B0FD009B9A68009B1B6A1344B1
:101FE0001B788DF80F30009B1B6A5A1C009B1A62ED
:101FF0009DF80F3019460198FFF726FE00BF05B087
:102000005DF804FB00B585B001900091009B5B6911
:10201000039316E0009B93F82830DBB2002B01D02D
:10202000002314E04FF48E710198FFF799FD0346E9
:1020300083F00103DBB2002BECD100990198FFF78C
:10204000C1FF009B1B6A039A9A42EBD801231846F2
:1020500005B05DF804FB000000B587B00390029165
:102060000192039B1B791A462C2302FB03F32F4A90
:1020700013440493039800F05BF80346002B03D04D
:1020800011230593059B4CE0049B019A5A61049B24
:10209000029A9A60049B00221A62049B002283F831
:1020A000282000230593039B1B684FF48E7118466C
:1020B000FFF741FD039B1B6808211846FFF7D1FD80
:1020C000039B1B6804991846FFF77CFF049B5B6821
:1020D000002B25D1039B1B6804991846FFF792FF3C
:1020E000034683F00103DBB2002B02D00F230593DC
:1020F00013E000BF039B1B684FF48E711846FFF777
:102100002FFD034683F00103DBB2002BF2D1039BCA
:102110001B680C211846FFF7A4FD049B00225A619E
:10212000059B184607B05DF804FB00BF6066002001
:1021300082B00190019B1B791946074A2C2301FBB1
:1021400003F3134414331B68002B14BF0123002333
:10215000DBB2184602B070476066002000B583B05D
:102160000190019B1B684FF492711846FFF7E3FC46
:10217000019B1B684FF484711846FFF7DCFC019B40
:102180001B6800211846FFF76CFD00BF03B05DF827
:1021900004FB10B582B001900091009B9B69002B5D
:1021A00008D14FF484710198FFF7C5FC0198FFF73F
:1021B00042FD13E04FF484710198FFF7BCFC009BD3
:1021C000DA68009B5B6AD4180198FFF734FD034678
:1021D0002370009B5B6A5A1C009B5A6202B010BDC0
:1021E00000B589B0039002910192039B1B791A46B6
:1021F0002C2302FB03F36E4A1344059300238DF84E
:102200001330059B5B68002B06D0039B1B684FF4C3
:1022100001711846FFF7D0FC059B9B69002B15D078
:10222000059BDB69002B0ED0059B5B68002B06D05D
:10223000039B1B684FF401711846FFF7A3FC1123A1
:102240000793079BB0E001238DF813309DF81330FE
:1022500083F00103DBB2002B0CD0059B019A9A613D
:10226000059B029ADA60059B00225A62059B0022B8
:10227000DA6105E0059B029A1A61059B019ADA6111
:10228000059B93F8293083F00103DBB2002B09D0C2
:102290009DF8133083F00103DBB2002B02D00398CA
:1022A000FFF75CFF059B5B68002B73D1039B1B68EA
:1022B0004FF4A2711846FFF73EFC039B1B684FF4D6
:1022C00092711846FFF74CFC03468DF81930039BBA
:1022D0001B684FF484711846FFF742FC03468DF8E3
:1022E0001B30039B1B684FF4A2711846FFF738FCA4
:1022F00003468DF81A309DF81B3083F00103DBB2E2
:10230000002B0DD09DF81A3083F00103DBB2002BB7
:1023100006D09DF8193083F00103DBB2002BCCD13D
:102320009DF81930002B0FD19DF81A30002B0BD1DE
:10233000039B1B6805991846FFF72BFF059B9A69BD
:10234000059B5B6A9A42B8D8059B00229A619DF86A
:102350001930002B03D003230793079B24E09DF83B
:102360001A30002B03D00F230793079B1CE0059B1B
:1023700093F82930002B06D0039B1B6800211846D8
:10238000FFF76FFC0DE0039B1B6804211846FFF765
:1023900068FC06E0039B1B684FF401711846FFF7C9
:1023A000F1FB00230793079B184609B05DF804FB77
:1023B0006066002000B589B003900291019201236C
:1023C0008DF81030029B0693019B0593039B5B687D
:1023D000039A116804AA1046984700BF09B05DF837
:1023E00004FB00B587B00190009100238DF8083000
:1023F000009B0493019B9B680393019B00225A61FD
:10240000019B5B68019A116802AA1046984700BFB9
:1024100007B05DF804FB00B58BB0019000914FF45C
:1024200000710198FFF7B8FB0346002B39D04FF439
:1024300092710198FFF794FB0346002B31D04FF4C3
:1024400092710198FFF777FB4FF401710198FFF744
:10245000B3FB009B93F8293083F00103DBB2002B20
:1024600003D004210198FFF7FCFB02238DF80C3008
:102470000198FFF7ABFB03460693009B9B6905930E
:10248000009BDB680493009B00229A61009B002262
:10249000DA61009B5B68009A116803AA10469847AE
:1024A00052E004210198FFF777FB0346002B4BD045
:1024B0004FF484710198FFF753FB0346002B43D080
:1024C00000990198FFF765FE009B9A69009B5B6A83
:1024D0009A4239D1009BDB69002B19D0009BDB6845
:1024E0000993009B5B6A0893009BDA69009B9A61E1
:1024F000009B1A69009BDA60009B0022DA61009B56
:1025000000225A62099A08990098FFF753FF1BE0CE
:10251000009B93F8293083F00103DBB2002B03D03A
:1025200004210198FFF79DFB4FF401710198FFF71B
:1025300043FB009B00229A61009B596A009BDB6869
:102540001A460098FFF736FF4FF48E710198FFF797
:1025500007FB0346002B24D0009B5B690793009B7D
:102560001B6A079A9A420DD9009B93F82830DBB278
:1025700083F00103DBB2002B04D000990198FFF730
:1025800021FD0EE04FF48E710198FFF7D4FA009B05
:102590005B69002B05D0009B5B6919460098FFF72B
:1025A00020FF4FF4A2710198FFF7DAFA0346002BDF
:1025B0001CD04FF4A2710198FFF7BDFA009B93F86D
:1025C0002930002B03D000210198FFF74AFB009B24
:1025D0009B69002B0AD0009B00229A61009B596ADC
:1025E000009BDB681A460098FFF7E4FE00BF0BB0C3
:1025F0005DF804FB08B503490348FFF70CFF00BF73
:1026000008BD00BF606600200020004082B0034685
:102610008DF807309DF90730002B0CDB9DF8073053
:1026200003F01F0205499DF907305B09012000FAFC
:1026300002F241F8232000BF02B0704700E100E041
:1026400082B0034600918DF807309DF90730002BCA
:102650000ADB009BDAB20C499DF907305201D2B275
:102660000B4483F800230BE0009BDAB207499DF886
:10267000073003F00F03043B5201D2B20B441A7629
:1026800000BF02B0704700BF00E100E000ED00E0D5
:1026900082B00190019B03F06043B3F1005F0CBF77
:1026A00001230023DBB2184602B0704782B00190CC
:1026B000019B1B0B5BB2184602B0704700B583B09C
:1026C00003460A468DF8073013468DF806309DF80C
:1026D00006209DF9073011461846FFF7B1FF00BFED
:1026E00003B05DF804FB00B583B003468DF80730F6
:1026F0009DF907301846FFF789FF00BF03B05DF86A
:1027000004FB84B001900B46ADF80230BDF80230F6
:10271000019A134400221A60BDF80230019A134452
:102720001B680393039B00BF04B0704782B0019005
:102730000B46ADF80230BDF80230019A13441B6815
:10274000002B14BF01230023DBB2184602B07047F0
:1027500082B001900091019BD3F80022009B1A43A4
:10276000019BC3F8002200BF02B0704782B0019005
:102770000091019BD3F80022009BDB431A40019B90
:10278000C3F8002200BF02B0704782B001900091F0
:10279000019B009AC3F8042300BF02B0704782B0C7
:1027A00001900091019B009AC3F8082300BF02B07A
:1027B000704784B00190019BD3F880340393019B50
:1027C000039AC3F88024039B184604B0704782B074
:1027D0000190019B0822C3F8002500BF02B070479A
:1027E00084B0039002910192039B029AC3F80C25D6
:1027F000039B019AC3F8142500BF04B0704784B04E
:10280000039002910192039B029AC3F80825039B4F
:10281000019AC3F8102500BF04B0704782B0019040
:102820000B468DF803309DF80330019A13440122C2
:102830001A6000BF02B0704782B001900B468DF85D
:10284000033013468DF802309DF803209DF80230C6
:102850001343DBB21A46019BC3F86C2500BF02B0DC
:10286000704782B001900091019B009AC3F8242523
:1028700000BF02B0704784B0039002910192029AA7
:10288000039BC3F84425039B019AC3F8482500BF66
:1028900004B0704782B00190019BD3F84C351846C4
:1028A00002B0704784B0039002910192029A039B98
:1028B000C3F83425039B019AC3F8382500BF04B040
:1028C000704782B00190019BD3F83C35184602B0A6
:1028D0007047000082B00190019B1B681F2B02D83B
:1028E0004FF0A04306E0019B1B6803F01F02019B11
:1028F0001A60024B184602B0704700BF0003005038
:1029000000B585B00190084611461A4603468DF879
:1029100003300B468DF8023013468DF8013001ABC1
:102920001846FFF7D7FF03909DF803209DF802306B
:102930005B001A439DF801309B001A439DF8183044
:102940001B0242EA03019DF81C301B04019A194343
:10295000039B02F5E07243F8221000BF05B05DF85A
:1029600004FB00B585B0039000230193002300937E
:102970000023012201210398FFF7C2FF00BF05B029
:102980005DF804FB00B585B003900B468DF80B3065
:102990009DF80B30002201920022009200220021BB
:1029A0000398FFF7ADFF00BF05B05DF804FB00B56D
:1029B00085B0019001AB1846FFF78CFF0390019B97
:1029C000012202FA03F31946039800F004F800BF4D
:1029D00005B05DF804FB82B001900091019B009A64
:1029E000C3F8082500BF02B0704700B583B001905E
:1029F0000091009B1B68B3F1FF3F09D0009B1B684F
:102A00001846FFF7D4FF009B1B681846FFF7A9FF85
:102A1000009B5B68B3F1FF3F05D0009B5B68002122
:102A20001846FFF7AFFF019B1A68009B9B69194688
:102A30001046FFF716FF019B1868009B597D009B0D
:102A40001B7D1A46FFF7F8FE019B1868009B19686A
:102A5000009B5B681A46FFF7C3FE009B1B7D012BA2
:102A600022D1009B9B68B3F1FF3F05D0009B9B6880
:102A700000211846FFF786FF009BDB68B3F1FF3F9C
:102A800009D0009BDB681846FFF791FF009BDB68CD
:102A90001846FFF766FF019B1868009BD968009BEA
:102AA0009B681A46FFF7ABFE00BF03B05DF804FB5E
:102AB00000B583B001900B468DF80330019B1B6875
:102AC0004FF488711846FFF71CFE019B1B684FF4FA
:102AD00090711846FFF715FE019B1B684FF4927129
:102AE0001846FFF70EFE019B1B684FF4A2711846B3
:102AF000FFF707FE019B1B684FF4AC711846FFF708
:102B000000FE019B1B680F491846FFF73EFE019B24
:102B10001B681846FFF7CAFD03461A469DF80330A6
:102B200019461046FFF7CAFD019B1B681846FFF7C0
:102B3000BDFD03461846FFF7D6FD00BF03B05DF8A4
:102B400004FB00BF1003420000B587B00390029160
:102B50000192039B1B791A461346DB0013449B002A
:102B6000264A1344049300230593049B93F82030D2
:102B7000002B03D008230593059B3AE0039B1A68BA
:102B8000039B1B7919461E4B53F8213019461046FA
:102B9000FEF732FF0346002B03D011230593059B5C
:102BA00027E002990398FFF720FF049B019A5A60DF
:102BB000029B1A69049B1A60049B5B68002B05D07A
:102BC000029B1B7F19460398FFF772FF039B1B684C
:102BD0001846FFF7FCFD049B00229A61049B00222B
:102BE000DA61049B00225A61049B012283F82020B1
:102BF000059B184607B05DF804FB00BF8C660020FB
:102C00004885000000B589B0039002910192039BB2
:102C10001B791A461346DB0013449B00434A1344B6
:102C200005930298FFF734FD034683F00103DBB2FE
:102C3000002B03D010230793079B73E0039800F049
:102C400077F80346002B03D011230793079B69E015
:102C5000059B019A5A61059B029A9A60002307938B
:102C6000039B1B684FF490711846FFF74AFD039BC6
:102C70001B684FF4AC711846FFF743FD039B1868BF
:102C8000059B9968059B5B691A46FFF7F4FD039B5A
:102C90001B6808211846FFF7C1FD059B5B68002BE8
:102CA0003FD1039B1B684FF490711846FFF73EFD20
:102CB00003468DF81A30039B1B684FF4AC7118461D
:102CC000FFF734FD03468DF81B309DF81A3083F072
:102CD0000103DBB2002B06D09DF81B3083F001030B
:102CE000DBB2002BDDD19DF81B30002B02D00F236F
:102CF000079313E0039B1B680C211846FFF78EFD1A
:102D000000BF039B1B684FF4AC711846FFF70EFD24
:102D1000034683F00103DBB2002BF2D1059B0022B6
:102D20005A61079B184609B05DF804FB8C660020C9
:102D300082B00190019B1B791946084A0B46DB00C3
:102D40000B449B00134414331B68002B14BF012356
:102D50000023DBB2184602B0704700BF8C6600202B
:102D600000B58BB0039002910192039B1B791A4628
:102D70001346DB0013449B006F4A134406930298EA
:102D8000FFF786FC034683F00103DBB2002B03D080
:102D900010230893089BCAE000238DF81F30069B80
:102DA0005B68002B06D0039B1B684FF40471184628
:102DB000FFF7F5FC069B9B69002B15D0069BDB6992
:102DC000002B0ED0069B5B68002B06D0039B1B6874
:102DD0004FF404711846FFF7D8FC11230893089BA1
:102DE000A5E001238DF81F309DF81F3083F001030B
:102DF000DBB2002B09D0069B019A9A61069B029ACE
:102E0000DA60069B0022DA6105E0069B029A1A61ED
:102E1000069B019ADA6100230893039B1B684FF419
:102E200088711846FFF76DFC039B1B684FF4A27175
:102E30001846FFF766FC039B1B68019A0299184627
:102E4000FFF730FD9DF81F3083F00103DBB2002B4C
:102E500006D0039B1B6800211846FFF7DFFC05E046
:102E6000039B1B6820211846FFF772FC039B1B790C
:102E70001946314A0B46DB000B449B0013440433D4
:102E80001B68002B4BD1039B1B684FF488711846BD
:102E9000FFF74CFC03468DF82730039B1B684FF46B
:102EA000A2711846FFF742FC03468DF81730039BCA
:102EB0001B684FF492711846FFF738FC03468DF8F3
:102EC00016309DF8273083F00103DBB2002B0DD0C4
:102ED0009DF8173083F00103DBB2002B06D09DF87C
:102EE000163083F00103DBB2002BCCD1039B1B799E
:102EF0001946114A0B46DB000B449B001344183360
:102F000000221A609DF81630002B01D0032308938D
:102F10009DF81730002B09D00F23089306E0039B80
:102F20001B684FF404711846FFF72FFC089B1846E6
:102F30000BB05DF804FB00BF8C66002000B589B0C3
:102F400003900291019201238DF81030029B0693A9
:102F5000019B0593039B5B68039A116804AA1046C2
:102F6000984700BF09B05DF804FB00B587B0019039
:102F7000009100238DF80830009B0493019B9B680F
:102F80000393019B00225A61019B5B68019A1168BF
:102F900002AA1046984700BF07B05DF804FB00B5D1
:102FA00089B0019000914FF492710198FFF7BEFB38
:102FB0000346002B22D04FF492710198FFF7A1FB3A
:102FC00002238DF808300198FFF7F3FB03460593C1
:102FD0000198FFF776FC03460493009BDB6803939C
:102FE000009B00229A61009B0022DA61009B5B68D3
:102FF000009A116802AA104698473BE04FF4887186
:103000000198FFF793FB0346002B33D04FF48871F0
:103010000198FFF776FB0198FFF753FC0790009BA0
:103020009B69079A9A4225D1009BDB69002B17D038
:10303000009BDB68069320210198FFF797FB009B1C
:10304000DA69009B9A61009B1A69009BDA60009B19
:103050000022DA61069A07990098FFF76FFF09E0EE
:10306000009B00229A61009BDB681A460799009832
:10307000FFF764FF4FF4A2710198FFF757FB034677
:10308000002B18D04FF4A2710198FFF73AFB009B78
:103090009B69002B0FD0009B00229A61009B0022AD
:1030A000DA610198FFF70DFC0146009BDB681A46C8
:1030B0000098FFF743FF4FF490710198FFF736FB3C
:1030C0000346002B14D04FF490710198FFF719FBC1
:1030D0000C210198FFF7A2FB009B5B69002B07D036
:1030E0000198FFF7D7FB034619460098FFF73DFF0D
:1030F0004FF4AC710198FFF719FB0346002B10D079
:103100004FF4AC710198FFF7FCFA009B5B69002B50
:1031100007D00198FFF7BEFB034619460098FFF75A
:1031200024FF00BF09B05DF804FB000008B50349A7
:103130000348FFF734FF00BF08BD00BF8C660020C6
:1031400000200040F0B587B00590134800F068FCFF
:10315000114B1B68184605F047F906460F460E4B03
:103160005B68184605F040F904460D460A4B9B681B
:10317000184605F039F902460B46CDE90223CDE9A0
:10318000004532463B46054804F0DAF8662002F076
:10319000BDFC00BFD9E700BFB06600204C85000031
:1031A00030B589B00390444B0793444B0693444B8E
:1031B0005B6805939DED057ADDED067A67EE277A6B
:1031C000F1EE676ADDED077A9FED3E7A27EE877AAA
:1031D000C6EE877A9FED3C7A67EE877ACDED047A6A
:1031E000374B93ED037ADDED047A77EE277A344B93
:1031F000C3ED037A324BD3ED037A9FED337AF4EECD
:10320000C77AF1EE10FA02DD2D4B304ADA602C4B12
:10321000D3ED037AF5EEC07AF1EE10FA03D5284B20
:103220004FF00002DA602A4B93ED007ADDED067A6A
:1032300077EE277A264BC3ED007A254BD3ED007A43
:103240009FED247AF4EEC77AF1EE10FA1ADD204BE6
:103250004FF000021A601A4BD3ED047A9FED1E7AEC
:1032600077EEC77A164BC3ED047A154BD3ED047A8B
:103270009FED1A7AF4EEC77AF1EE10FA02D5104BF0
:10328000174A1A610E4BDB68184605F0ADF8044684
:103290000D460B4B1B69184605F0A6F802460B4677
:1032A000CDE9002322462B460E4804F049F866205B
:1032B00002F02CFC7BE700BF00004842CDCCCC3DA7
:1032C000B0660020000061450000C8420000C8420E
:1032D000F8660020000070420AD7233C0000A0429C
:1032E0000000A04274850000F0B593B00D904D4BE6
:1032F0001B6811934B4B5B6810934A4B9B680F9371
:10330000494BD3ED007A9DED117AB4EEE77AF1EEF8
:1033100010FACCBF01230023DAB2444B1A70424B9F
:10332000D3ED017A9DED117AB4EEE77AF1EE10FA61
:103330004CBF01230023DAB23C4B5A703A4BD3ED19
:10334000027A9DED107AB4EEE77AF1EE10FACCBF76
:1033500001230023DAB2354B9A70334BD3ED037A55
:103360009DED0F7AB4EEE77AF1EE10FACCBF0123AF
:103370000023DAB22D4BDA702B4BD3ED047A9DED9E
:103380000F7AB4EEE77AF1EE10FA4CBF0123002376
:10339000DAB2264B1A71254B1B78002B0FD1234B29
:1033A0005B78002B0BD1214B9B78002B07D11F4B57
:1033B000DB78002B03D11D4B1B79002B2DD01198EE
:1033C00005F012F806460F46109805F00DF8044671
:1033D0000D460F9805F008F802460B461349097888
:1033E0000846124949780A91104989780B910F498A
:1033F000C9780C910D49097908910C9907910B999D
:1034000006910A9905910490CDE90223CDE9004582
:1034100032463B46064803F093FF332002F076FB2A
:1034200065E700BFB066002018400020C466002099
:1034300098850000F0B589B007901D4B1B681846B1
:1034400004F0D2FF06460F46194BDB68184604F01D
:10345000CBFF04460D46164B1B69184604F0C4FF0B
:1034600002460B461349097800290FD111494978C2
:1034700000290BD10F498978002907D10D49C97856
:10348000002903D10B490979002901D0012100E06D
:1034900000210491CDE90223CDE9004532463B46A7
:1034A000054803F04DFF4FF4007002F02FFBC4E716
:1034B000B0660020C4660020E885000084B001905A
:1034C0000B468DF8033000238DF80F3012E0019B7E
:1034D0001A789DF80F305340DBB21A460A4B9B5CBA
:1034E0008DF80F30019B013301939DF80330013BB0
:1034F0008DF803309DF80330002BE8D19DF80F3094
:10350000184604B0704700BF408B00002DE9F04F13
:103510008BB009900B468DF823309DF82330142290
:1035200019461F4803F00CFF9DF823301A460999ED
:103530001C4803F0D0FF1B4B1B68184604F054FFD7
:1035400082468B46174B5B68184604F04DFF0446D5
:103550000D46144B9B68184604F046FF06460F467E
:10356000104BDB68184604F03FFF804689460D4B40
:103570001B69184604F038FF02460B46CDE90623C6
:10358000CDE90489CDE90267CDE9004552465B46A5
:10359000054803F0D5FE00BF0BB0BDE8F08F00BFBB
:1035A00028860000184000205886000000B587B02B
:1035B00001900B468DF803309DF80330032B06D89D
:1035C0009DF8033019469B4803F0BAFE2FE1019B9A
:1035D0001B788DF81730019B01331B788DF816305E
:1035E000019B02331B788DF81530019B03331B7848
:1035F0008DF814309DF80330042B03D9019B04335C
:103600001B7800E0FF238DF8133004238DF8083079
:103610009DF817308DF809309DF816308DF80A3076
:103620009DF815308DF80B3002AB04211846FFF7DA
:1036300045FF03468DF812309DF812209DF8143096
:103640009A4208D09DF812309DF8142019467A4805
:1036500003F076FEEBE09DF80330042B0FD9774B97
:103660001B789DF813209A4205D19DF81330194616
:10367000734803F065FE714A9DF8133013709DF88E
:1036800016301AB29DF815301BB21B021BB2134341
:103690001BB2ADF81030BDF81030ADF80E309DF80B
:1036A0001730203B122B00F2B98001A252F823F010
:1036B000FD3600002D3700005D3700001D3800008A
:1036C0001D3800001D3800001D3800001D380000A6
:1036D0001D3800001D3800001D3800001D38000096
:1036E0001D3800001D3800001D3800001D38000086
:1036F0008D370000BD370000ED370000BDF90E30FA
:1037000007EE903AB8EEE77AF2EE046AC7EE267A50
:103710004C4BC3ED007A4B4B1B68184604F064FE1B
:1037200002460B46484803F00BFE80E0BDF90E3020
:1037300007EE903AB8EEE77AF2EE046AC7EE267A20
:10374000404BC3ED017A3F4B5B68184604F04CFEDA
:1037500002460B463D4803F0F3FD68E0BDF90E302C
:1037600007EE903AB8EEE77AF2EE046AC7EE267AF0
:10377000344BC3ED027A334B9B68184604F034FE99
:1037800002460B46324803F0DBFD50E0BDF90E3037
:1037900007EE903AB8EEE77AF2EE046AC7EE267AC0
:1037A0002C4BC3ED007A2B4B1B68184604F01CFE13
:1037B00002460B46284803F0C3FD38E0BDF90E3041
:1037C00007EE903AB8EEE77ADFED246AC7EE267A84
:1037D000204BC3ED017A1F4B5B68184604F004FED2
:1037E00002460B461E4803F0ABFD20E0BDF90E304B
:1037F00007EE903AB8EEE77AF2EE046AC7EE267A60
:10380000144BC3ED027A134B9B68184604F0ECFD91
:1038100002460B46134803F093FD08E09DF817306D
:10382000BDF810201946104803F08AFD00BF07B00C
:103830005DF804FBA0860000C4860000C966002075
:10384000FC860000B0660020348700005887000026
:103850007C8700002C400020A08700000000C842A8
:10386000C8870000EC8700001088000000B587B012
:1038700001900B468DF803309DF80330002B03D1E7
:10388000184803F05DFD29E0019B1B788DF8173087
:10389000019B013304939DF80330013B8DF80F30F9
:1038A0009DF81730022B02D0042B07D00DE09DF8B5
:1038B0000F3019460498FFF729FE0FE09DF80F30EE
:1038C00019460498FFF772FE08E09DF817309DF83E
:1038D0000F201946044803F033FD00BF07B05DF820
:1038E00004FB00BF488800006488000000B595B064
:1038F0000190484803F024FD00238DF84F30002349
:103900008DF84E3000238DF84D3000238DF84C306B
:103910000DF10B031846FDF74BFC0346002B03D0BB
:10392000142002F0F3F874E09DF84C30032B69D8B2
:1039300001A252F823F000BF4939000059390000B4
:1039400099390000D13900009DF80B30AA2B5DD1C8
:1039500001238DF84C3059E09DF80B308DF84F3035
:1039600000238DF84E3000238DF84D309DF84F30F8
:10397000002B03D09DF84F30402B09D99DF84F30D4
:103980001946254803F0DCFC00238DF84C3040E05C
:1039900002238DF84C303CE09DF84E305A1C8DF8D7
:1039A0004E209DF80B2050336B4403F8442C9DF8B7
:1039B0000B209DF84D3013448DF84D309DF84E206E
:1039C0009DF84F309A4223D303238DF84C301FE0EB
:1039D0009DF80B309DF84D209A4207D19DF84F205D
:1039E00003AB11461846FFF741FF07E09DF84D3045
:1039F0009DF80B201946094803F0A2FC00238DF81E
:103A00004C3006E000238DF84C3002E000BF7FE729
:103A100000BF7DE78C880000A4880000C0880000FB
:103A200082B001903F4B1B7883F00103DBB2002B87
:103A30000ED0019B1B683C4A1360019B5B683B4AAC
:103A40001360019B9B683A4A1360364B01221A703F
:103A5000354BD3ED007AB6EE007A77EE877A324BAB
:103A6000C3ED007A304BD3ED007A9FED327AF4EE5D
:103A7000C77AF1EE10FA02DD2B4B2F4A1A602B4B5E
:103A8000D3ED007A9FED2D7A77EE877A274BC3ED41
:103A9000007A264BD3ED007A9FED297AF4EEC77AAF
:103AA000F1EE10FA02DD214B264A1A60204BD3EDCD
:103AB000007A9FED257A77EE877A1D4BC3ED007A69
:103AC0001B4BD3ED007A9FED217AF4EEC77AF1EE2D
:103AD00010FA02DD164B1E4A1A601E4B93ED007A57
:103AE000114BD3ED007A77EE277A019BC3ED007A74
:103AF000184B93ED017A0D4BD3ED007A67EE277AE0
:103B0000019BC3ED017A134B93ED027A084BD3ED81
:103B1000007A77EE277A019BC3ED027A00BF02B0EC
:103B2000704700BFFC66002000670020046700208B
:103B3000086700200000D7430000AA43CDCC4C3ECC
:103B40000000B442000020C1CDCCCC3D0000824238
:103B50000000A0C02C40002000B583B00190019B64
:103B60001B78022B05D1019B5B681846FDF760F8B6
:103B700008E0019B1B78012B04D1019B5B68184670
:103B8000FDF756F800BF03B05DF804FB00B585B043
:103B900001900023039308E00B4B1A68039B134426
:103BA000094A1360039B01330393039B074A934223
:103BB000F2D9054B1B681946054803F0C1FB4FF4C9
:103BC0007A7001F0A3FFE4E7CC6600209F86010035
:103BD0001089000082B0184B0193019B1A780022D3
:103BE0001A705A7800225A709A7800229A70DA78FD
:103BF0000022DA70114A019B5A60019B1A7A002256
:103C000042F004021A725A7A00225A729A7A0022F8
:103C10009A72DA7A0022DA72019B1A7B00221A73F6
:103C20005A7B00225A739A7B00229A73DA7B002215
:103C3000DA7300BF02B07047D06600200120002078
:103C400000B583B003468DF807309DF80730002B90
:103C500006D09DF807301946064803F071FB02E0D4
:103C6000054803F06DFB054803F06AFB00BF03B095
:103C70005DF804FB308900005C890000A089000029
:103C800000B587B00190002303933C4803F058FB34
:103C90003B4803F055FB3B4803F052FBFFF79AFF0C
:103CA000394B0593059B1A78002242F005021A70E1
:103CB0005A7800225A709A7800229A70DA78002294
:103CC000DA7003AB1A4624212F4804F0FDFB0346AB
:103CD0008DF813309DF813301846FFF7B1FF2B48CD
:103CE00003F02EFBFFF776FF274B0593284A059B31
:103CF0005A6003AB1A462421234804F0E5FB03462F
:103D00008DF813309DF813301846FFF799FF2148BE
:103D100003F016FBFFF75EFF1B4B0593059B1A781C
:103D2000002242F001021A705A7800225A709A78E2
:103D300000229A70DA780022DA70059B1A7A002243
:103D400042F041021A725A7A00225A729A7A00227A
:103D50009A72DA7A0022DA7203AB1A4651210A48C3
:103D600004F0B2FB03468DF813309DF8133018466B
:103D7000FFF766FF0A2001F0C9FEFBE7A4890000F7
:103D8000C0890000DC890000D0660020F8890000AE
:103D90008D3B0000188A000030B593B003F0DAF8CC
:103DA00003F0E2F800F0F0FB1190119B1093109BD0
:103DB000002B02D01098FCF73BFF002000F042FCE3
:103DC00000210020FCF7FCFA0F900F9B002B02D083
:103DD0000F98FCF72DFFFCF7B5FA4F4B07AC1D46CB
:103DE0000FCD0FC495E8030084E803004B4B039309
:103DF0004FF4006304934A4B05934FF4006306931A
:103E000003A907A80723474AFDF742F91190119B20
:103E10000E930E9B002B02D00E98FCF709FF424830
:103E200003F08EFA414B424A1A60404B414A5A60B5
:103E30003E4B414A9A603D4B404ADA603B4B404A18
:103E40001A61052200213F4803F0D0FA00230193B4
:103E50000223009300234FF420723B493B4801F0BA
:103E60002BFD0D900D993A4803F06AFA0023019357
:103E70000223009300234FF420723649364801F0A4
:103E80001BFD0D900D99354803F05AFA002301935C
:103E90000323009300234FF420723149314801F08D
:103EA0000BFD0D900D99304803F04AFA0023019361
:103EB0000123009300234FF420722C492C4801F079
:103EC000FBFC0D900D992B4803F03AFA0023019367
:103ED0000423009300234FF440722749274801F040
:103EE000EBFC03461946264803F02AFA254B0193BA
:103EF0000123009300234FF400722349234801F06B
:103F0000DBFC0D900D99224803F01AFA01F07AFEBD
:103F10000023184613B030BD288B00000C6700202A
:103F20000C6F0020593B0000308A0000B066002072
:103F30000000AF43000020410000C8410000A04243
:103F40000000C842C4660020508A000045310000CD
:103F5000588A0000708A0000A1310000788A0000B1
:103F6000948A0000E9320000A08A0000BC8A0000A8
:103F700035340000C88A0000E08A0000ED380000F7
:103F8000EC8A0000F4660020048B0000813C0000F5
:103F9000108B0000BFF34F8F00BF064BDB6803F4AC
:103FA000E0620449044B1343CB60BFF34F8F00BF63
:103FB00000BFFDE700ED00E00400FA0582B0164BFB
:103FC0001B680193154B1B680093019B082B1FD1A5
:103FD000009B052B1AD801A252F823F0F53F0000F0
:103FE000F93F0000FD3F00000140000005400000D7
:103FF0000940000001230CE001230AE0012308E04E
:10400000012306E0012304E0012302E0012300E094
:104010000023184602B07047300100103401001030
:1040200082B0164B1B680193154B1B680093019BD4
:10403000082B1FD1009B052B1AD801A252F823F0A0
:10404000594000005D4000006140000065400000F4
:10405000694000006D40000001230CE001230AE0EC
:10406000012308E0012306E0012304E0012302E02C
:10407000012300E00023184602B070473001001011
:104080003401001082B0164B1B680193154B1B685E
:104090000093019B082B1FD1009B052B1AD801A26E
:1040A00052F823F0BD400000C1400000C5400000B0
:1040B000C9400000CD400000D140000001230CE0C9
:1040C00000230AE0002308E0002306E0002304E0C8
:1040D000002302E0002300E00023184602B07047EE
:1040E000300100103401001082B0164B1B680193A0
:1040F000154B1B680093019B082B1FD1009B052BC0
:104100001AD801A252F823F02141000025410000F5
:10411000294100002D4100003141000035410000DF
:1041200001230CE000230AE0002308E0002306E05E
:10413000002304E0002302E0002300E000231846EF
:1041400002B07047300100103401001082B0164BED
:104150001B680193154B1B680093019B082B1FD113
:10416000009B052B1AD801A252F823F085410000CC
:10417000894100008D4100009141000095410000FF
:104180009941000001230CE000230AE0002308E02D
:10419000002306E0002304E0002302E0002300E007
:1041A0000023184602B0704730010010340100109F
:1041B00082B0164B1B680193154B1B680093019B43
:1041C000082B1FD1009B052B1AD801A252F823F00F
:1041D000E9410000ED410000F1410000F54100001F
:1041E000F9410000FD41000001230CE000230AE03A
:1041F000002308E0002306E0002304E0002302E09F
:10420000002300E00023184602B070473001001080
:104210003401001082B0164B1B680193154B1B68CC
:104220000093019B082B1FD1009B052B1AD801A2DC
:1042300052F823F04D420000514200005542000068
:10424000594200005D4200006142000001230CE081
:1042500001230AE0012308E0012306E0012304E032
:10426000012302E0012300E00023184602B070475A
:10427000300100103401001082B0164B1B6801930E
:10428000154B1B680093019B082B1FD1009B052B2E
:104290001AD801A252F823F0B1420000B542000042
:1042A000B9420000BD420000C1420000C54200000A
:1042B00000230CE000230AE0002308E0002306E0CE
:1042C000012304E0012302E0012300E0002318465B
:1042D00002B07047300100103401001008B5FFF73C
:1042E000CBFF0346002B07D04FF010234FF0804246
:1042F000D3F80832C2F8583500BF08BD00BF044BE0
:10430000D3F80034002BFAD000BF00BF704700BFC5
:1043100000E0014000B583B00190054A019BC2F85E
:104320000435FFF7EBFF00BF03B05DF804FB00BFEF
:1043300000E00140024B034A1A6000BF704700BF13
:10434000384000200090D00308B5FFF737FE034641
:10435000002B0ED04FF080430022C3F80C214FF009
:1043600080430022C3F810214FF080430022C3F89D
:104370003825FFF755FE0346002B76D04FF08053CB
:10438000734AD3F80434C2F820354FF08053704A92
:10439000D3F80834C2F824354FF080536C4AD3F870
:1043A0000C34C2F828354FF08053694AD3F81034E2
:1043B000C2F82C354FF08053654AD3F81434C2F854
:1043C00030354FF08053624AD3F81834C2F8343590
:1043D0004FF080535E4AD3F81C34C2F840354FF09A
:1043E00080535B4AD3F82034C2F844354FF08053F1
:1043F000574AD3F82434C2F848354FF08053544A12
:10440000D3F82834C2F84C354FF08053504AD3F8D3
:104410002C34C2F850354FF080534D4AD3F8303425
:10442000C2F854354FF08053494AD3F83434C2F8B7
:1044300060354FF08053464AD3F83834C2F86435BB
:104440004FF08053424AD3F83C34C2F868354FF0FD
:1044500080533F4AD3F84034C2F86C354FF0805354
:104460003B4AD3F84434C2F87035FFF70BFE0346DD
:10447000002B02D0374B384A1A60FFF735FE03464F
:10448000002B03D0354BFB22C3F81825FFF75EFE47
:104490000346002B0AD0324B1B6823F00F02314B2E
:1044A0001B6803F00F032E4913430B60FFF780FED8
:1044B0000346002B03D02C4B4FF400721A60FFF719
:1044C000A9FE0346002B0DD04FF08043D3F80034F3
:1044D00003F00103002B05D04FF080436FF0010281
:1044E000C3F80024214BD3F88830204A43F47003EA
:1044F000C2F88830BFF34F8F00BFBFF36F8F00BF8C
:10450000FFF7ECFE4FF01023D3F80032002B05DB51
:104510004FF01023D3F80432002B15DA0120FFF7F7
:10452000F9FE4FF010231222C3F80022FFF7E6FE37
:104530004FF010231222C3F80422FFF7DFFE002001
:10454000FFF7E8FEFFF726FDFFF7F4FE00BF08BD0A
:1045500000C000408C5600404881030000F000403D
:10456000E40E0040580200104096024000ED00E0CA
:10457000044BD3F80034002B14BF01230023DBB21B
:10458000184670470000014000B583B00023019336
:10459000144B1B78002B02D08523019314E0114BA0
:1045A00000229A600F4B00225A600E4B00221A61C3
:1045B0000C4B0022DA600C4800F0D6F9019000F0B4
:1045C000EDF9084B01221A70FFF7D2FF0346002BCA
:1045D00002D0044B01229A70019B184603B05DF88B
:1045E00004FB00BF0C7700200947000084B0019055
:1045F0000091019B1B68039306E0039A009B9A427B
:104600000DD0039B1B680393039B002BF5D1019BEB
:104610001A68009B1A60019B009A1A6000E000BFB4
:1046200004B0704784B00190019B1B680393039B07
:10463000002B03D0039B1A68019B1A60039B18464A
:1046400004B0704700B583B001901A4B9B78DBB281
:10465000002B12D0019B002B03D0019B5B68012033
:1046600098470020FCF71EFE124BDB680133114A0D
:10467000D3600020FCF71FFE17E00020FCF712FEBD
:10468000019B002B03D001990B48FFF7AFFF094BAB
:10469000DB68002B01D100F089F9064BDB680133A0
:1046A000044AD3600020FCF706FE00BF03B05DF8AB
:1046B00004FB00BF0C7700201C77002000B585B0FC
:1046C00003468DF807309DF80730002B02D10C4BC4
:1046D000039301E00B4B03930398FFF7A3FF0290B2
:1046E000029B002B06D0029B5B689DF807201046BA
:1046F0009847F1E700BF00BF05B05DF804FB00BFBD
:10470000147700201C77002000B583B003468DF895
:1047100007309DF80730002B05D10A4B01225A7053
:104720000020FFF7CBFF9DF80730012B05D1054B8B
:1047300001229A700120FFF7C1FF00BF03B05DF8AE
:1047400004FB00BF0C77002082B003468DF80730D1
:104750009DF90730002B0CDB9DF8073003F01F029A
:1047600005499DF907305B09012000FA02F241F882
:10477000232000BF02B0704700E100E082B0034692
:1047800000918DF807309DF90730002B0ADB009B64
:10479000DAB20C499DF907305201D2B20B4483F8CA
:1047A00000230BE0009BDAB207499DF8073003F0C5
:1047B0000F03043B5201D2B20B441A7600BF02B081
:1047C000704700BF00E100E000ED00E082B0019022
:1047D000019B1B0B5BB2184602B0704700B583B05B
:1047E00003460A468DF8073013468DF806309DF8CB
:1047F00006209DF9073011461846FFF7BFFF00BF9E
:1048000003B05DF804FB00B583B003468DF80730B4
:104810009DF907301846FFF797FF00BF03B05DF81A
:1048200004FB000082B003468DF807300F4A9DF963
:104830000730002B00DA1F335B115BB252F82320E4
:104840009DF90730594203F01F0301F01F0158BFC3
:104850004B425BB222FA03F303F00103002B14BFB7
:1048600001230023DBB2184602B0704700E100E0EC
:1048700082B001904FF08042019BC2F8043300BF28
:1048800002B0704782B001904FF08042019BC2F8A5
:10489000083300BF02B0704782B003468DF807307E
:1048A0009DF8073003F1804301221A6000BF02B077
:1048B000704784B00346ADF80630BDF8063003F10A
:1048C000804300221A60BDF8063003F180431B6864
:1048D0000393039B00BF04B0704782B00346ADF85A
:1048E0000630BDF8063003F180431B68002B14BF6F
:1048F00001230023DBB2184602B0704782B001905A
:104900004FF08042019BC2F8183500BF02B07047DB
:1049100000B583B006238DF807304FF08040FFF7D5
:1049200055FF03461846FFF77DFF034683F001035A
:10493000DBB2002B13D04FF08040FFF747FF034658
:104940001A469DF8073019461046FFF747FF4FF00B
:104950008040FFF73BFF03461846FFF754FF00BFB8
:1049600003B05DF804FB000084B0019000230393C2
:10497000094B1B79002B02D08523039308E0064ADC
:10498000019B1360044B01221A71034B00225A71E0
:10499000039B184604B070472077002008B5FFF746
:1049A000B7FF0120FFF7AAFF00BF08BD08B54FF40D
:1049B0008270FFF77EFF0220FFF75AFF0820FFF703
:1049C0006BFF00BF08BD000008B54FF48070FFF713
:1049D00084FF0346002B14D04FF48070FFF769FF6B
:1049E0000120FFF74FFF114B5B7983F00103DBB22E
:1049F000002B06D00D4B01225A710C4B1B68002076
:104A000098474FF48270FFF768FF0346002B0AD0E7
:104A10004FF48270FFF74DFF0220FFF733FF034B87
:104A20001B680120984700BF08BD00BF2077002009
:104A300000B583B00346ADF80630BDF80630184621
:104A400000F026F803461B68012B0CBF012300234E
:104A5000DBB2184603B05DF804FB00B585B0034631
:104A6000ADF80630BDF80630184600F011F80346E0
:104A70001A4600231360BDF80630184600F008F807
:104A800003461B680393039B00BF05B05DF804FB5E
:104A900082B00346ADF80630BDF8063003F180431E
:104AA00003F5C043184602B07047000082B0019081
:104AB000034BD3F80423019B1340184602B0704700
:104AC0000060004082B00190054A019B03F5A2738B
:104AD00052F823301B0A03F03F03184602B0704718
:104AE0000060004082B00190064A019B03F5A2736A
:104AF00052F823301B0C03F00303DBB2184602B05C
:104B0000704700BF0060004082B00190019B1B68AD
:104B10001F2B02D84FF0A04306E0019B1B6803F057
:104B20001F02019B1A60024B184602B0704700BF7B
:104B30000003005000B585B001900B468DF803309E
:104B400001AB1846FFF7E0FF0390019A039B02F5C3
:104B5000E07253F82230019A23F44031039B02F5AE
:104B6000E07243F82210019A039B02F5E07253F8B9
:104B700022109DF803301B04019A1943039B02F590
:104B8000E07243F8221000BF05B05DF804FB00B5E9
:104B900085B0019001AB1846FFF7B6FF0390019A6C
:104BA000039B02F5E07253F822301B0C03F0030361
:104BB000DBB2184605B05DF804FB000088B0039036
:104BC00002910192164A05AB92E8030083E80300C4
:104BD000039B079319E0079B9B0020336B4453F81A
:104BE0000C3CD3F82025019B1A60079B9B002033C7
:104BF0006B4453F80C3C019A1268C3F82025019BC2
:104C000004330193079B01330793039A029B1344D8
:104C1000079A9A42DFD300BF00BF08B0704700BFB9
:104C2000508C000000B585B0019001AB1846FFF72D
:104C30006BFF0390019B012202FA03F31A46039BC8
:104C4000C3F8202500BF05B05DF804FB84B00190D7
:104C50000091009B0393019BDB080293019B03F0EF
:104C6000070301930122019B02FA03F30399029ABD
:104C70000A4412781340184604B0704782B001907D
:104C8000044A019B1344243393F90030184602B0C0
:104C9000704700BF2877002082B00190034A019B33
:104CA00052F82330184602B0704700BF2877002022
:104CB00084B00190074A019B1344543393F90030A8
:104CC0008DF80F309DF80F3023F0C003184604B064
:104CD000704700BF2877002084B00190074A019BED
:104CE0001344543393F900308DF80F309DF80F3092
:104CF0009B09DBB2184604B0704700BF287700203C
:104D000000B585B00190019A02210020FFF756FFFF
:104D1000002303930BE0039B9B00019A13441B6841
:104D2000002B01D0012306E0039B01330393039B77
:104D3000012BF0D90023184605B05DF804FB0000F4
:104D400000B587B00190002305935BE0344A059BD2
:104D50001344543393F90030B3F1FF3F4ED005981C
:104D6000FFF7A6FF049001990498FFF76FFF034631
:104D7000002B44D00598FFF7AFFF03468DF80F30A6
:104D80000498FFF704FF03468DF80E309DF80E30AF
:104D9000022B01D1032300E002238DF80D309DF892
:104DA0000D3019460498FFF7C5FE0498FFF73AFF47
:104DB0000498FFF763FF03461846FFF76DFF029064
:104DC000029B002B1BD09DF80F30032B0FD09DF8BA
:104DD0000E30022B03D19DF80F30012B07D09DF828
:104DE0000E30032B0BD19DF80F30022B07D19DF80D
:104DF0000F20029B11460498984700E000BF059BD6
:104E000001330593059B002BA0D00198FFF778FF95
:104E10000346002B97D100BF00BF07B05DF804FB2D
:104E20002877002000B58BB00023089301AB002247
:104E30001A605A604FF48073ADF81A300123099359
:104E40000023079321E0BDF81A301846FFF7F0FD64
:104E50000346002B0ED00998FFF728FE0346002BCF
:104E600008D0BDF81A301846FFF7F7FD089A099BDD
:104E700013430893099B5B000993BDF81A30043370
:104E8000ADF81A30079B01330793079B072BDAD93C
:104E90004FF4BE70FFF7CCFD0346002B0DD04FF44E
:104EA000BE70FFF7DAFD089B43F00043089301ABA7
:104EB0001A4602210020FFF781FE089BDBB2002B7F
:104EC00029D0012309930023079321E0099A089B25
:104ED0001340002B16D00798FFF7F4FD05900798B4
:104EE000FFF700FE03468DF813300798FFF7D4FE56
:104EF0000390039B002B05D09DF81320039B1146C4
:104F000005989847099B5B000993079B013307931A
:104F1000079B072BDAD9089B002B03DA01AB184655
:104F2000FFF70EFF00BF0BB05DF804FB00B589B0C2
:104F300001900023059300230493019B002B22D0B2
:104F40000823DB43019A9A421BD80822019B134491
:104F50000193019B03F00703002B14D0019B03F086
:104F60000703C3F108030393039BDB43019A9A42AF
:104F700004D8019A039B1344019304E00023019396
:104F800001E00023019300F06BFE3C4B1B68002BFB
:104F900001D100F0B5F8019B002B67DB019B002BD2
:104FA00064D0374B1B68019A9A425FD8354B069301
:104FB000344B1B68079304E0079B0693079B1B6811
:104FC0000793079B5B68019A9A4203D9079B1B686A
:104FD000002BF1D1294B1B68079A9A4246D0069BB9
:104FE0001B68082213440593079B1A68069B1A60E6
:104FF000079B5A68019BD21A08235B009A4213D977
:10500000079A019B13440293079B5A68019BD21A8B
:10501000029B5A60079B019A5A60069B1A68029B82
:105020001A60069B029A1A60154B1A68079B5B6808
:10503000D31A134A1360124B1A68134B1B689A4217
:1050400003D20F4B1B68104A1360079B5B680493E5
:10505000079B5B6843F00042079B5A60079B002256
:105060001A600A4B1B680133084A136000F002FE05
:10507000059B184609B05DF804FB00BF8CC70020F3
:1050800090C7002084C7002094C7002098C7002044
:1050900000B585B00190019B0393019B002B27D0A5
:1050A00008235B42039A13440393039B0293029BDE
:1050B0005B68002B1CDA029B1B68002B18D1029B3B
:1050C0005B6823F00042029B5A6000F0C9FD029B1E
:1050D0005A68094B1B681344074A1360029800F092
:1050E00065F8064B1B680133044A136000F0C2FDEB
:1050F00000BF05B05DF804FB90C700209CC70020EE
:1051000084B04FF4A0430293234B0393039B03F01B
:105110000703002B0CD0039B07330393039B23F05F
:1051200007030393029A039BD31A1B4A1344029367
:10513000039B1A4A1360194B00225A60039A029B80
:10514000134401930822019B9B1A0193019B23F0B6
:1051500007030193019B124A1360114B1B68002245
:105160005A600F4B1B6800221A60039B0093009B40
:10517000019AD21A009B5A60094B1A68009B1A6068
:10518000009B5B68074A1360009B5B68064A1360DC
:1051900000BF04B0704700BF8477002084C70020A0
:1051A0008CC7002094C7002090C7002084B00190D5
:1051B000264B039302E0039B1B680393039B1B682E
:1051C000019A9A42F7D8039B0293039B5B68029A69
:1051D0001344019A9A4208D1039B5A68019B5B6869
:1051E0001A44039B5A60039B0193019B0293019B0A
:1051F0005B68029A1A44039B1B689A4218D1039B6E
:105200001A68134B1B689A420DD0019B5A68039B86
:105210001B685B681A44019B5A60039B1B681A68F1
:10522000019B1A6008E00A4B1A68019B1A6003E0B0
:10523000039B1A68019B1A60039A019B9A4202D051
:10524000039B019A1A6000BF04B0704784C7002016
:105250008CC7002082B00190019B03F10802019BE2
:105260005A60019B4FF0FF329A60019B03F10802E4
:10527000019BDA60019B03F10802019B1A61019B0B
:1052800000221A6000BF02B0704782B00190019BFB
:1052900000221A6100BF02B0704784B001900091F3
:1052A000009B1B680293029BB3F1FF3F03D1019B5C
:1052B0001B6903930CE0019B0833039302E0039BFB
:1052C0005B680393039B5B681B68029A9A42F6D261
:1052D000039B5A68009B5A60009B5B68009A9A6027
:1052E000009B039A9A60039B009A5A60009B019A64
:1052F0001A61019B1B685A1C019B1A6000BF04B015
:10530000704784B00190019B1B690393019B5B680C
:10531000019A92689A60019B9B68019A52685A6050
:10532000039B5B68019A9A4203D1019B9A68039B95
:105330005A60019B00221A61039B1B685A1E039B43
:105340001A60039B1B68184604B0704700B585B00F
:105350000190009101230393019B0293029B002B78
:105360005FD0029BDB6B002B5BD0029B1A6C029B15
:10537000DB6B0021A3FB0223002B00D001210B4695
:10538000002B4ED101F0AEFC029B1A68029BDB6B36
:105390000299096C01FB03F31A44029B9A60029B79
:1053A00000229A63029B1A68029B5A60029B1A6849
:1053B000029BDB6B013B0299096C01FB03F31A446E
:1053C000029BDA60029BFF2283F84420029BFF22AB
:1053D00083F84520009B002B16D1029B1B69002BF4
:1053E0001CD0029B1033184600F0EAFE0346002B47
:1053F00014D00F4B4FF080525A6040BFBFF34F8F15
:1054000000BFBFF36F8F09E0029B10331846FFF710
:1054100021FF029B24331846FFF71CFF01F074FCA8
:1054200001E000230393039B184605B05DF804FBDD
:1054300000ED00E000B58BB00590049113468DF8A7
:105440000F3000230993059B002B2ED00021049AD6
:10545000059BA3FB0223002B00D001210B46002B50
:1054600023D1059B049A02FB03F313F1490F1CD8C7
:10547000059B049A02FB03F30893089B48331846E4
:10548000FFF754FD0990099B002B0ED0099B079351
:10549000079B483307939DF80F20099B0093134601
:1054A000079A0499059800F005F8099B18460BB077
:1054B0005DF804FB00B585B00390029101928DF870
:1054C0000330029B002B03D1069B069A1A6002E070
:1054D000069B019A1A60069B039ADA63069B029A5E
:1054E0001A6401210698FFF731FF00BF05B05DF88F
:1054F00004FB000000B58BB00390029101920023E1
:105500000993039B089301F0EDFB089B9B6B0793AA
:10551000079B002B22D00299089800F091F8079B76
:105520005A1E089B9A63089B1B69002B12D0089B8C
:105530001033184600F044FE0346002B0AD03F4BC0
:105540004FF080525A6040BFBFF34F8F00BFBFF390
:105550006F8F00BF01F0D8FB01236BE0019B002B94
:1055600003D101F0D1FB002364E0099B002B05D19E
:1055700005AB184600F0EAFE0123099301F0C4FBD5
:1055800000F06EFB01F0AEFB089B93F844305BB279
:10559000B3F1FF3F03D1089B002283F84420089B0E
:1055A00093F845305BB2B3F1FF3F03D1089B002273
:1055B00083F8452001F0A8FB01AA05AB1146184667
:1055C00000F0D6FE0346002B25D1089800F0B4F871
:1055D0000346002B19D0089B2433019A1146184624
:1055E00000F0A2FD089800F050F800F043FB0346DD
:1055F000002B88D1114B4FF080525A6040BFBFF34F
:105600004F8F00BFBFF36F8F13E0089800F03DF895
:1056100000F030FB77E7089800F037F800F02AFB3D
:10562000089800F089F80346002B3FF46CAF002384
:1056300000E068E718460BB05DF804FB00ED00E001
:1056400000B583B001900091019B1B6C002B18D01A
:10565000019BDA68019B1B6C1A44019BDA60019B79
:10566000DA68019B9B689A4203D3019B1A68019BED
:10567000DA60019BD968019B1B6C1A46009801F007
:105680002AFF00BF03B05DF804FB00B585B00190B0
:1056900001F028FB019B93F845308DF80F3013E0A3
:1056A000019B5B6A002B14D0019B2433184600F049
:1056B00087FD0346002B01D000F0A2FE9DF80F30BD
:1056C000013BDBB28DF80F309DF90F30002BE7DC8A
:1056D00000E000BF019BFF2283F8452001F014FB8E
:1056E00001F000FB019B93F844308DF80E3013E07D
:1056F000019B1B69002B14D0019B1033184600F04E
:105700005FFD0346002B01D000F07AFE9DF80E30BD
:10571000013BDBB28DF80E309DF90E30002BE7DC3B
:1057200000E000BF019BFF2283F8442001F0ECFA67
:1057300000BF05B05DF804FB00B585B0019001F035
:10574000D1FA019B9B6B002B02D10123039301E053
:105750000023039301F0D8FA039B184605B05DF8C7
:1057600004FB000084B00190009100230293009B91
:10577000002B24D0002303931EE0174A039BDB0079
:1057800013445B68019A9A4205D1039BDB00124ADD
:105790001344029313E0029B002B0AD10E4A039B91
:1057A00052F83330002B04D1039BDB000A4A134428
:1057B0000293039B01330393039B012BDDD9029BCF
:1057C000002B05D0029B009A1A60029B019A5A6036
:1057D00000BF04B0704700BFA0C7002000B587B06D
:1057E000039002910192039B059301F07BFA059BC4
:1057F00093F844305BB2B3F1FF3F03D1059B002225
:1058000083F84420059B93F845305BB2B3F1FF3F2A
:1058100003D1059B002283F8452001F075FA059B12
:105820009B6B002B06D1059B2433019A02991846E5
:1058300000F090FC0598FFF728FF00BF07B05DF867
:1058400004FB00B58BB00790069105920493059B6D
:105850009B001846FFF76AFB0890089B002B13D0AB
:105860006420FFF763FB0990099B002B08D064229A
:105870000021099801F0BAFD099B089A1A6305E016
:105880000898FFF705FC01E000230993099B002B12
:105890000DD000230393099B02930D9B01930C9B56
:1058A0000093049B059A0699079800F027F8099B36
:1058B00018460BB05DF804FB00B589B00590049163
:1058C000039202930B9B01930A9B0093029B039A02
:1058D00004990598FFF7B5FF0690069B002B05D0AD
:1058E000069800F07BF80123079302E04FF0FF33A6
:1058F0000793079B184609B05DF804FB00B587B015
:1059000003900291019200930A9B186B019B9B00EC
:105910001A46A52101F06AFD0A9B1A6B019B03F14F
:105920008043013B9B0013440493049B23F0070333
:105930000493029B002B1ED00023059312E0029AD1
:10594000059B134419780A9A059B134434330A467D
:105950001A70029A059B13441B78002B06D0059BF6
:1059600001330593059B1F2BE9D900E000BF0A9B7B
:10597000002283F85320089B022B01D902230893AD
:105980000A9B089ADA620A9B089A5A650A9B0433B2
:105990001846FFF77AFC0A9B18331846FFF775FC88
:1059A0000A9B0A9A1A61089BC3F103020A9B9A6137
:1059B0000A9B0A9A5A62009A0399049801F032F9F4
:1059C00002460A9B1A60099B002B02D0099B0A9A87
:1059D0001A6000BF07B05DF804FB000000B585B099
:1059E000019001F07FF9424B1B680133404A13607C
:1059F000404B1B68002B09D13E4A019B13603C4B76
:105A00001B68012B10D100F009FD0DE03A4B1B681B
:105A1000002B09D1374B1B68DA6A019BDB6A9A427B
:105A200002D8344A019B1360344B1B680133334A5C
:105A30001360019BDA6A324B1B689A4203D9019BBF
:105A4000DB6A2F4A1360019BDA6A2E4913469B00DA
:105A500013449B000B4404331B680393019B039A7C
:105A60009A60039B9A68019BDA60039B9B68019A8A
:105A700004325A60019B1A1D039B9A60019BDA6AEB
:105A800013469B0013449B001E4A1A44019B5A6113
:105A9000019BDA6A1B4913469B0013449B000B448D
:105AA0001B68019AD26A591C164813469B0013447E
:105AB0009B000344196001F027F90F4B1B68002B72
:105AC00011D00C4B1B68DA6A019BDB6A9A420AD23E
:105AD0000D4B4FF080525A6040BFBFF34F8F00BF55
